:200000008000202037290000371D0000371100000000000000000000000000000000000024
:2000200000000000000000000000000037350000000000000000000037210000373900008C
:20004000370D000019C50000375500003765000028510000267500003701000037050000CE
:2000600000000000372D0000373100000000000000000000375D00003761000037590000F8
:2000800037450000374D0000373D000037410000375100003749000000000000000000006C
:2000A0003715000037190000000000000000000036FD0000000000003725000037090000D5
:2000C000B5F0B0FFB08C93044615460698909000918A68344620F003FADE1820210091893F
:2000E00090024284D24422009285A885920373021C64460F1E6078002800D0342825D00608
:20010000603446299A0447901C7F1C64E7F2980343C0900197891C60900360307820A985BF
:2001200073082873D109A98AAA8946289B04F000F82199899C039A01E011AC05A985AA8AF3
:200140004620F000F8354602462046299B0047981C419A014611D00019C191899C031C486F
:200160009802D1BEE000463A4610B07FB00CBDF0460AE7F9B5F8460468081D05600D680674
:200180002E00D01194004614461D4630F003FA834607682019C06020240042BCDA075D305B
:2001A000990047A81C64E7F8200046214798BDF8B5F0B0859201460E4604207F00801825D6
:2001C0002700970321FF910231FE22204620F003FA5B9504706F7B302825D0521C6B2878D3
:2001E000D0132864D011286FD00F2863D1209A0168101D0160116801B2C8424741479A028B
:20020000461030FC18207029E014461DA903AA0446309B01F000F83B980399042800D00372
:200220001E48222D700AE00046089A02462BE00146289A021A1929004625DC011A611C4DE1
:200240001C410053260046284632F002FEBD2F00D0021C417006E000460142A1D8061E4813
:200260001A611C492220F003FA0F70261B2922204620F003FA094620F003FA0D19C0B005FA
:20028000BDF020007060202570202001E7F7B5F84614460D46067B074619F000F8147B31BE
:2002A0002964D1042800D5022101602942402F6FD001210AE00021082F78D10021104622FC
:2002C000F000F812BDF87B002864D005286FD0032878D0012870D10468081D02600A6800EA
:2002E00047702000477046C0B5F84614460D46062800D10468201E416021213070014F0A44
:200300002E00D00D46304629F000F810460143691A715C7968221E53602370114606E7EF81
:200320006820F003F9B8BDF86C040000B5802910D0032908D10308C0BD800900BD80F002E9
:20034000FB07BD80B5F0B0974614460D4606991E9A1D981CAF169701803EAE15960280352C
:20036000AD149503702CAC138023AB128018A81190047002AA107011AA0C210091057011E9
:200380009916AA09801178000841A80E90067001780108C8900707491C4029009008D101CD
:2003A000980790089B049A06990298019D039E08781C4374AE0A80349C143C20702C880066
:2003C0008809781218821E52781B18CB1E5BB292B29BF002F8199805A90B8008E7FFA80B03
:2003E0008800A90A88094288DB00E0ABA8117800280CD10CE7FFA8147800210C4341485557
:200400001840A90B88095C40A90F7008E034A81178002810D10BE7FFA81478000101484C6A
:200420001840A90B88095C40A90F7008E023A81178002818D10CE7FFA81478002130434113
:2004400048421840A90B88095C40A90F7008E011A81178002820D10BE7FFA81478000181C7
:2004600048391840A90B88095C40A90F7008E000E068E7FFE7FFE7FFA90D20007008E7FF84
:20048000A80D78002807DC57E7FFA81078002800D124E7FFA80F7800A90D780940C807C07F
:2004A0002800D005E7FFA8138800F002FDFDE004A8128800F002FDF8E7FF980C1C41A80C82
:2004C00070017800A90E7809F002FA422900D104E7FFA90C20007008E02EE027A80F780058
:2004E000A90D780940C807C02800D009E7FFA8168800A9158809AA138812F002FBF1E7FF5F
:2005000098161C41A81680018800A90988091A40A90E78094288D108E7FF9809A9168008C3
:2005200098151C40A9158008E006E7FFE7FF980D1C40A90D7008E7A3E7FF980B1C40A90B68
:200540008008E74CB017BDF0377000004F3000006100000066F00000B580B092F000F9A788
:200560002001900504819101486B9002F002FFE820649003F002FF8C99019802F002FEC810
:200580009803F002FF85980299050609F002FEC09803F002FF7D2011F002FB5C2078F00246
:2005A000FF772036F002FB562070F002FFFB203AF002FB5020059006F002FFF420B2F002B5
:2005C000FB49200C9004F002FFED9804F002FFEA2000F002FFE72033900BF002FFE3980B65
:2005E000F002FFE020B7F002FB352035F002FFDA20BBF002FB2F2032F002FFD420C2F0022F
:20060000FB299805F002FFCE20C3F002FB232015900FF002FFC720C4F002FB1C2020F002BC
:20062000FFC120C6F002FB16200FF002FFBB20D09007F002FB0F20A4F002FFB420A1F00297
:20064000FFB120E0F002FB069807F002FFAB20089008F002FFA7200E9009F002FFA32009E0
:20066000900AF002FF9F980AF002FF9C9806F002FF9920319010F002FF95980BF002FF925C
:200680002048900CF002FF8E2017900DF002FF8A2014900EF002FF86980FF002FF8398107C
:2006A000F002FF8020349011F002FF7C20E1F002FAD19807F002FF769808F002FF739809FE
:2006C000F002FF70980AF002FF6D980AF002FF6A980FF002FF679810F002FF64980BF0022B
:2006E000FF61980CF002FF5E980DF002FF5B980EF002FF58980FF002FF559810F002FF52EF
:200700009811F002FF4F2021F002FAA42029F002FAA1B012BD8046C02000400AB4FC240105
:2007200007E44063E002B4FC240107E4B408031D08ED0DD643350256005F0D7FD106002C17
:200740004334D000E0AEB001BCFC477008A443252407022434FF42A7D10520000D190509F9
:20076000B001BCFC47702B00D50324001BA641AC0025030B08DB0DC24313024200480D4070
:20078000D107001C4314D000E08CBC0E0010BCF047702401076443232407022434FF42A039
:2007A000D10520000D090509B001BCFC47702900D50324001AA2419C00231BC1D508001C49
:2007C000002B002500140032002624001A6100382936D525B40239394249000C3C20D2033D
:2007E000002F408F4337E001003740A72F00D0012140430EBC022920D50B2900D00E424C54
:200800003420B42040A5002CBC20410D40CE1936E0042900002E410D3920410E1992416B90
:20082000001C4314D03E24002B00D504240121001A8A4199000B1E400052415BD5FB210102
:2008400002890015400DD00C18522700417BD3011C40E00B210701C90015400DD1010089B8
:20086000438A21070209438A0052415B1C80DD192107020931FF4288D309BC0E20000FC960
:20088000020931FF00C91DC90509BCF047700B190500430107E4432105180B124310B00103
:2008A000BCFC477021002000B001BCFC47704770B580B08E900CA80B800188002800D104E9
:2008C000E7FFA90D20008008E0A3A80B900288000040F002FF019A02900A980A990C88123B
:2008E0000052F002FEFF9902980A88094B4B2202F000F9329802780007C02800D113E7FF49
:20090000990AA80B880220019001438218881E8088005A891840F002F87999010789F00101
:20092000FB159009E009980AA90B8809220143915A40F002FAE79009E7FF980A8800A90880
:200940008008A90720018008A90680089908AA058011A9048008E7FFA8048800A90B88090A
:200960004288DA3CE7FF980AA904880900495A40A90888094288D105E7FF98071C40A9077B
:200980008008E00A980AA904880900495A40A9088008A90720018008E7FFA8078800A906C4
:2009A00088094288DC0EE7FFA8078800A90688094288D10EE7FFA8088800A90588094288C5
:2009C000DA07E7FF9807A90680089808A9058008E7FFE7FF98041C40A9048008E7BCA8065A
:2009E00088002802DB04E7FF9805A9038008E0099809213F0609F000FF7EF002F87BA90338
:200A00008008E7FF980AF000FE8F9803A90D8008E7FFA80D8800B00EBD8046C035B900005E
:200A2000B58049412000800849408008494080084940800849407008484088002800D1040E
:200A4000E7FF494020006008E009483C88002801D104E7FF493A20006008E7FFE7FFE7FF09
:200A600048338800F000FA3C483378002801D10BE7FF483088000040493318401E80880035
:200A80001CC0492B8008E7FFE7FF482B78002801D0E6E7FF48278800280ADB03E7FFF00025
:200AA000F8F5E03F482088002806DB25E7FF482388002800D104E7FF492220006008E00974
:200AC000481E88002801D104E7FF491D20006008E7FFE7FFF000FA96491E2000800848179C
:200AE00088002800D107E7FF4914200180084818F002FC9EE7FFE014F001FB5E480F880093
:200B00002800D104E7FF4811F002FC92E7FF480B88002801D104E7FF480DF002FC89E7FFC2
:200B2000E7FFE7FFBD8046C027302020272E2020273220202734202027362020270E202034
:200B400027102020271420202190202080004086A0004086272C2020B5F0B091461E460CD7
:200B600090094255920F9310950C0867D100E08B94021E6346104378990918089006200015
:200B800093014639460791041E489003429FD267930A1E789705463E43569D09900E4602D5
:200BA0009906461719A8460C9A10479046219B0F1C7A18ED2800D4F49708920B1C509007CA
:200BC0009F0A463A435A920D9E09980D18309A10479046211E7F9B0C18F62800DCF51C7855
:200BE000990B4281D214463C980A1C41910D9A0F43519B0E4353930E2A00D0111E52980E4B
:200C00005C2B5C77542F54731C491C40900EE7F39B0842BB460F46039E109A0FD1B6E01CDF
:200C200099049A0B4291D00D980342A046239E109A0F9F07D1AA98051E40435018289B0BF0
:200C40004619E0061C619A0F980D435018309E109B0B90061C5F4623E795980B1E431C47F8
:200C60002B009C02D0061C5998099A0F4633F7FFFF739A0F98014287D2064610437899099F
:200C8000180991091BE4E770B011BDF0B580B086483B88000041483B5A40F002F8A5220050
:200CA00092014B39F7FFFD3F46029801460B4937F000FB48F001FA0C9005A9032001800825
:200CC000E7FFA8038800493288094288DA10E7FFA8038800004249375A881E925A891A4091
:200CE000492C5288E7FF98031C40A9038008E7E8482788001E41A802800188014825F7FF58
:200D0000FDD7460148248001990591008800F001FE7D46019800F001F919F001FE3922007C
:200D20004B1EF7FFFD00F001FD719004481C88002800D107E7FF9904201901404348491A8D
:200D40006008E009481688002801D104E7FF980449146008E7FFE7FFF000F9544913200092
:200D60008008480F88002800D107E7FF490C20018008480FF002FB5CE7FFB006BD8046C0A9
:200D8000273020202700202000003FF012D041932734202021402020272E202000003FE080
:200DA000270E20202710202027142020272C2020A000408621902020B5B0B090461D460B89
:200DC0009C14A90F8008A80E8003AB0D801AAA0C8015AD0B802C240094099408881B880C55
:200DE0001B1B9307881288031AD29206880991028800900198072801DB03E7FF20019004FC
:200E0000E00E98072800D103E7FF20009004E006200043C09004980742409007E7FFE7FF8E
:200E200098062801DB03E7FF20019003E00E98062800D103E7FF20009003E006200043C049
:200E40009003980642409006E7FFE7FF980799064288DD03E7FF98079005E0029806900566
:200E6000E7FFA90A20008008E7FFA80A880099051C494288DA32E7FFA8028800A9018809E5
:200E8000AA0B8812F001FF2C99079809184090099906980818409008980999054288DD0997
:200EA000E7FF990598091A4090099904980218409002E7FF980899054288DD09E7FF9905A1
:200EC00098081A4090089903980118409001E7FFE7FF980A1C40A90A8008E7C6B010BDB083
:200EE000B083A9028008483F88002828DB04E7FF494220007008E072483B88002800D132BD
:200F0000E7FF9802A9018008E7FFA801880049374288DC27E7FFA8018800004148385A4049
:200F2000217D00C94288D817E7FFA80188000040493318408840492F4288D30DE7FF9801FD
:200F40004928880A00534A2C52D088081C408008492A20017008E042E7FF98011C40A9017C
:200F60008008E7D2E037482088002801D132E7FF980246698008E7FF46688800491B4288FC
:200F8000DC27E7FF46688800004148195A40217D00C94288D817E7FF46688800004049141D
:200FA0001840884049134288D30DE7FF9800490D880A00534A1052D088081C408008490F0A
:200FC00020017008E00BE7FF98001C4046698008E7D2E7FFE7FF490920007008E7FFB00374
:200FE000477046C027342020270E202007FC00001000202003E90000219020202736202057
:2010000000002020B5B0B08A483A6800493A4288D30BE7FF4837680049384288D805E7FF01
:201020004834680049396008E0154835680049354288D30BE7FF4832680049334288D805F7
:20104000E7FF482F680049316008E003492F20006008E7FFE7FF4C2E9400206E900821469F
:20106000910622AA2357F000FEED990698084A2168122510950294012300930793002309B7
:201080009309F000F84B990798089B094A1C6812950294019100215AF000F840980799081D
:2010A0009B094A1A68129502940190004608F000F835481888002801D119E7FF48149004B6
:2010C0009000202300C2200021BE910523F0F000FEB99804990522019202222092019000D6
:2010E0004A0D203F0143201EF000FFB0E7FFB00ABDB046C02714202067E10035BC1F00BE75
:20110000271020207D010000ADAF000127182020FFFF0000270E20206C240000B5F0B09115
:201120004614460D4606981899179A16AF10803EAE0F8035940EAC0D7023AB0C801AAA0BC3
:201140008011A90A7008AA072000701078090849AA067011A9097008E7FFA8097800A90D90
:2011600078094288DA62E7FF980E9004990D980943C01840B2C1200A9005F001FD8346013C
:201180009804F001FBE59905F001FBE2A8087001A80778002800D12AE7FFA8097800A90D46
:2011A00078091E494288DA22E7FFA80878002800D118E7FF9810A909780AA90678094351DC
:2011C0001840A90F8809AA0C8813AA0B8812AC0A78242500950294019200B2802220F7FF2F
:2011E000F8B1E01EA90720017008E7FFE7FF9810A909780AA906780943511840A90F8809F2
:201200009A083230AB0C881BAC0B8824AD0A782D2600960295019400B280B2D2F7FFF89293
:20122000E7FF98091C40A9097008E796B011BDF0B5FE2900D0054C3D27002C07D803463EC3
:20124000E0032700E06F46263E08428ED36B97011E43220842184607D00046172807D80077
:2012600046171DC890022507483168004780483178012900D10B21012C09D2012200E003A0
:201280004A2D2300609360164B2C601A7001980243A890021E7842794C2868252D00D0344F
:2012A000462C34081906400E42B4D010462A321046333B08429AD90119F6E7F9682A230174
:2012C000439A18A29B0218F3429AD3E6E006682A2301439A9B02429ADBDF46264628F001C3
:2012E000FF9B42A6D0161B3038086829220143D340191A0960284018182F4311390860B9E0
:2013000037084628F001FE12E005480D680047809F01E008462F46389902F000FFE548087C
:201320006800478037084638BDFE46C00400000027202020273820202210202022082020FA
:2013400027242020B4FC000C405C0FE407E4B410031D0B2D0056416D005F0D7FD073240159
:20136000056443252407022434FF42A7D061030B0B1B0042415B00480D40D0642401056495
:2013800043232407022434FF42A0D0521BC021002700243642ABD10042B2D304417F41490F
:2013A0001B9241ABE001417F41491E64D0062B00D1012A00D0020052415BE7EB2C20D20733
:2013C0002C16D30A003940A726201B3640F1E00B3C20003940A12700E00640A126201B3620
:2013E000003D40F5432940A7240105644221D102007F41491E4024001C7F4161240105A4CE
:201400004221D0021C4043A1E001086443A12403022434FF1900DD16192442A0D80907CCC7
:2014200008490500430108784320BC104321BCFC4770BC0220000FC9020921FF00C91DC900
:201440000509BCFC477021002000B001BCFC4770B580493520008008493480084934700859
:20146000E7FF48318800F7FFFD3B483178002801D10BE7FF482D88000040492E18401E80D1
:2014800088001CC049288008E7FFE7FF482878002801D0E6E7FF48258800280ADB03E7FF8B
:2014A000F7FFFBF4E03F482488002806DB25E7FF482288002800D104E7FF49242000600856
:2014C000E009481E88002801D104E7FF491E20006008E7FFE7FFF7FFFD95491D2000800800
:2014E000481688002800D107E7FF4914200180084814F001FF9DE7FFE014F000FE5D480FB5
:2015000088002800D104E7FF480DF001FF91E7FF480A88002801D104E7FF480AF001FF881C
:20152000E7FFE7FFE7FFBD802732202027342020273620202190202027302020270E2020EE
:2015400080004086A00040862710202027142020272C2020B580B08A2009F001FEB5200AF4
:20156000F001FEB2201421029101F001FE0199012015F001FD3B201921039108F001FDF81D
:2015800099082018F001FDF499082017F001FD2E23009302930020019005040292032023BD
:2015A0004619F001FB2799029A039805910004C32027F001FABB202BF001FE7A202CF001AE
:2015C000FE77202FF001FE742033F001FE71203AF001FE6E2036F001FE6B2035F001FE681E
:2015E0004814900649149104F001FFB499049806F001FE4698062110F001FEAE990598064B
:2016000004899107F001FD9898069907F001FDA29808048148099009F001FF9C98092111E3
:201620000509F001FE8D980921470489F001FE28B00ABD800000400A400007002000400A81
:20164000B5B04A361880684A6042780A2A22D8560093A40158E3469F16F5000016FF000045
:2016600016F5000016FF000016FF000016FF000016FF000016FF000016FF000016FF0000CC
:2016800016FF000016FF000016FF000016FF000016FF000016FF000016E5000016FF0000BC
:2016A00016E5000016FF000016FF000016FF000016FF000016FF000016FF000016FF00009C
:2016C00016FF000016FF000016FF000016FF000016FF000016FF000016E5000016FF00007C
:2016E00016E5000068032403072443A324010764191BE00368032403072443A36003690B2B
:2017000060C368CB6AC44D0640254C06401C192B62C37A0943116001BDB046C018040000AF
:201720008888FFFD77770002B5F82800D06746044833680047803C084E32220046314615F5
:2017400068302701460243BA18B6360842A1460AD3F44B2D4A2B2B07D901189A3A084296B9
:20176000D900260042A1D14707C0D0452D00D00A682940394628D00020002E00D1062900F6
:20178000D12A2600E00B2E00D0262000783107C94631D00021002800D00B460E4605462808
:2017A000F001FD3A2E00D108F001FF6618803008E00F25002900462FD00E4630F001FD2CB4
:2017C0002F00D00DF001FF586833400B188018C030106028462CE00C682021014388E007DD
:2017E0006820210143C940086832400A1880300860204620F001FB9A480468004780BDF89B
:2018000027202020221020200400000027242020B5F0B08449304A31250103AC6816022BF3
:201820009303439E6016680E4226D105680E4226D102680E4226D0F6026C7E46699743AF8E
:20184000402E19BD619525205D4569D6270343BE403D197561D54D22682E270740372605E7
:20186000602E6A466833621368736253602F69C3065B0C5B69D5267F023643B518EB61D3BD
:20188000C8E897006807970168479702071B0B1B032DB2AD18ED07330D1B7A009E004335E4
:2018A000431D9B01431D9B02431D430569904B0D4003480D402818C0619068109B034318FC
:2018C000601068084220D10568084220D10268084220D0F6B004BDF00204400B0108400BAD
:2018E00013004040008DFFF0FF72000FB4FC270107FF4079E002B4FC270107FF020C004DA7
:201900000E2DD1032C00D152BCFC4770433C2DFFD05008A42900D5004264020200430E1B6F
:20192000D1042A00D1430008BCFC4770433A2BFFD04108922800D50042521B5ED5040017D1
:201940000022003C4276002B2E19D5060027413719D2271C1BF7427F40BC2A00D027D50290
:2019600042522701E00027003B010052D5FC001526804035D00F001526204035432C328045
:20198000D208001526404035432CD1042601023643B2E0001C5B00523302DD082BFFD20B1B
:2019A0000A5005DB431807FF4338BCFC47702000BCFC477000080FC707FF20FF05C04338D0
:2019C000BCFC4770B580B08A2001F001FBDF900998092801D145E7FF200104814822F001DD
:2019E000FD6E2800D03CE7FF2014F001FD94481F90049000202300C22000900621BE9105F1
:201A000023F0F000FA1F98049905220192022220920190004A16203F0143201EF000FB1612
:201A200098064914800848149007880148139008F001FCF2980788014811F001FCED9808DA
:201A4000F001FCF6E7FF200104814807F001FD372800D001E7FFE7F62014F001FD5CE7FF83
:201A6000E000E7FFB00ABD800000400AFFFF00006C150000270E20202700202080004086BE
:201A8000A0004086B580B08A9009200190060681482A9007F001FD4A990698070609F0011B
:201AA000FD45A90820007008E7FFA80878002817DC2DE7FFA809788006002800D506E7FFC7
:201AC00020010641481DF001FC17E00520010641481AF001FD2BE7FF9809004090092001EC
:201AE0000681910448159003F001FC0620649005F000FFE498039904F001FD189805F00030
:201B0000FFDDE7FF98081C40A9087008E7CD20019000064148099001F001FD089900980128
:201B200006099102F001FD022064F000FFC798019902F001FBE1B00ABD8046C00000400A91
:201B4000B510B08A482290079000202300C292052100910423F04608F000F9749B049807A7
:201B60002401940221109106910190004A192014210FF000FA6B98049A059000232D46192A
:201B8000F7FFF91A990698079402910190004A12201F02C39309203C90082146F000FA56AF
:201BA0009A06990798089B099402920191004A0B215AF000FA4B9A06990798089B099402C8
:201BC000920191004A06216EF000FA40B00ABD10FFFF00006B8C00006C6400006C6B0000B5
:201BE0006C720000B580B084481F9002210091004A1EF001F937990098024A1DF001F91EC8
:201C0000990098022201920302D29201F000FFC299009802F001F9B2980299034A15F0016C
:201C2000F921980299034A14F001F9089A0198029903F000FFAF98029903F001F99F480F7F
:201C4000F001FC022011F001F8772004F001F8A0480BF001FBF92014F001F86E2005F0017E
:201C6000F897B004BD8046C0A0004042128040000000202032804000100020208000408622
:201C8000A0004086B580B088481E9000F001FB28481D9001F001FB24481C9002F001FBB0CF
:201CA000481B9003F001FBAC481A9004F001FBE448199005F001FB80200107809006F0013F
:201CC000FAD348169007F001FACF9800F001FAE49801F001FAE19802F001FB869803F00124
:201CE000FB839804F001FBBC9805F001FB4D9806F001FAAE9807F001FAAB2010F000F9E3E4
:201D0000B008BD800000400A2000400A80004086A000408680004010A00040462000400018
:201D2000B580B08A492148229009F000FDB198092200920892019200230193060459F0009D
:201D4000FBDD99069B0898099304060991039302930193004619461AF000FC4299069809A5
:201D60000409F001F9839809F001F9BC99069809F000FFA0990698090209F001F9C198093C
:201D80002102F001FA57980921209107F001F99C99079809F001F9C299082005F000F894AF
:201DA0009809F001FB81B00ABD8046C06C54000020004000B580B08A4921200190060780E1
:201DC0009009F000FD659B06980922009208920192000459F000FB9299069B0898099304A1
:201DE000060991039302930193004619461AF000FBF7990698090409F001F9389809F001E2
:201E0000F97199069809F000FF55990698090209F001F97699069809F001FA0C9809212010
:201E20009107F001F95199079809F001F97799082004F000F8499809F001FB36B00ABD807D
:201E40006C5C0000B5B0B0884614460D46019A0CA8078001A906800DAD05802CAC04802366
:201E6000AB03801A880088099A051E529B041E5BB292B29BF000FAC89806A9028008E7FFE0
:201E8000A8028800A90488094288DA1BE7FF9807A9018008E7FFA8018800A905880942883C
:201EA000DA0AE7FFA8038800F001F8FEE7FF98011C40A9018008E7EEE7FF98021C40A902D5
:201EC0008008E7DDB008BDB0B570B0824602A80170029100210056402800D416E7FF240073
:201EE000A9015708220343D340184A1758805709078C0EE524FF40AC43A09C0001A4B2E45E
:201F000040AC432040195088E01AA9017808240F40203808220343D340184A0A5880250066
:201F20005749078D0EEE25FF40B543A89D0001ADB2ED40B543284021390840195088E7FF6A
:201F4000B002BD70ED1CE000E400E000B4FC270107FF0006404E0FF607F6020200430E1B11
:201F6000D02D433A2BFFD02D020C004D0E2DD026433C2DFFD0261B5B2000212008640852F6
:201F800042A2414042A2D3001B123901D0042A00D0010052D1F440884238D10100403B0148
:201FA0003080D3013301E0000040337FDD072BFFD2080A4005DB43184330BCFC4770200028
:201FC000BCFC477020FF05C04330BCFC47704770B5F81C45780023002B08D032782F07C2C7
:201FE000D10C786A240F40141CE42C12D10B2402572EB2F42E00D4081CEEE00E1C6D1C4A3F
:20200000700F4611E01A1CAEE0081D2E78ED9500257F402C9D0001ED192C3412013D09127A
:2020200019524D0942AAD00E43D22C00D0055C8D1C4F700D1E644639E7F7463508401C5B15
:20204000E7CA4628E7C5BDF80FFF0000B5F0B08D4614460D4606981499139A12AF0C803E9A
:20206000AE0B8035940AAC098023AB08801AAA077011A9067008E7FF980A78002800D0203E
:20208000E7FFA80C90058800A90B88099A0A7812AB09881BAC088824AD079504782DAE06B9
:2020A0007836960295019400F7FEF94C9804990578000842980C18808008980A1C40900A1E
:2020C000E7DAB00DBDF01E811F09BF00D2FC4770B40C4B1B004A1AD2D21B0D00030A431014
:2020E000220102121880D3020840031218890A402900D502220107D2431000490D492238AC
:2021000001121A89D40C29FFD20D05C94308BC0C477043DB401A4302D00543D8BC0C47705E
:202120002000BC0C47700FC907C920FF05C04308BC0C477046C046C046C046C046C046C086
:202140000000FFE0B0859004202690009904205043489003481668009002E7FF48146800D4
:202160009001980199024288D01FE7FF980199024288D207E7FF980299011A4198001840BF
:202180009000E009480B680099011A4099021841980018409000E7FF98019002980099035E
:2021A0004288D301E7FFE001E7FFE7D7B0054770E018E000E014E000B580481488002806B7
:2021C000DC22E7FF491188081C408008481088002800D109E7FF480D88000041480D5A4177
:2021E000480EF001F919E00E480988002801D109E7FF48068800004148065A414806F00197
:20220000F90BE7FFE7FFE7FFBD8046C027302020270E202027002020A000408680004086A6
:20222000B5F04B16461D3D08682E240143A6602E681E2703033F43BE403818306018681813
:2022400026FF43B0B2C918406018682843206028681D2A00D00E480A022107224315601DA0
:202260006802420AD1056802420AD1026802420AD0F6BDF007204385601DBDF00110400BAB
:202280000204400BB580B08220009001F000F8E6200103814812F001F8474812F000F88610
:2022A000F7FEF95A20C89000F001F935F7FFFC9A9800F001F930F001F9239800F001F92B47
:2022C000F000FB869800F001F9262032F000FC489800F001F920F7FFFC33E7FFE7FE46C0C7
:2022E0000000400A6C320000B5F8460468022501461043A81A402810D3211866380860B0DA
:20230000360843A8183737084A0E480F2A07D9011810380891004287D20D783807C0D10A59
:202320004638F000FF79683043E94008683A400A1880300860304630F000FDF89A00432AFD
:202340006022BDF80400000022102020B580B08220009001F001F83C200190000240F000B0
:20236000FE559801F000FF20F001F95EF001F8FC9A0020030300210AF7FFFF52480AF7FFBB
:20238000FA472010F000FF1EF001F8F8F001F9549801F000FE4B9801F000F9B0980099016A
:2023A000F7FFFD92B002BD806B640000B083B51EAC05C40E9001480F680047804A0E6990E9
:2023C0001C40D00DA9059102480C900032184B0CA801F7FDFE754604480A68004780E0043F
:2023E000480868004780200043C44620BC1EBC02B0034708272020202610202036F500000F
:2024000036ED000027242020B510B086AC058020A80490008001A8038002A802900180031A
:20242000202AF000FC1798053014B280F000FE3C98033014B280F000FE37202BF000FC0A9B
:2024400098008800F000FE3098018800F000FE2C202CF000FBFFB006BD104770B580F7FF68
:20246000FC11F7FFF877F7FFFF71F000F9ADF000F989F000FA4DF000FA2BF7FFFC9BF7FFAD
:20248000FC4FF001F91DF001F8E74905229C2000548849045488490422245488BD8046C037
:2024A00020A020202000202021E02020B580B084900391029803F001F8F546698008A90192
:2024C00020008008E7FFA8018800466988094288DA0DE7FF9803A90188095C414806F000B5
:2024E000FDB5E7FF98011C40A9018008E7EB46688800B004BD8046C080004010B510B08455
:202500009C079C0690039102920193009803490A184099029A0143119A0043114A07F0002B
:20252000FC7998034906184099069A0743114A05F000FC70B004BD101104000000010013FB
:202540001108000000071F1FB5F0B081460668536894899589D0900069176950431C432C36
:20256000433C9B00431801004320010B18F32409026451187810785200891871430248047A
:20258000580B24BF43A34022189A500AB001BDF011100000B580B084900391029201980365
:2025A000490B184099024A0BF000FC349803490A18409901223FF000FC2D99034A07188878
:2025C000588922014011F000FC25B004BD8046C011100000FFFF0000111400001104000045
:2025E000B510B0859200460298009C0B9C0A9C099C089C079204AA037011900293019802B2
:2026000099014308990743089908430899094308990A4308990B43089904781200921889DA
:20262000222301D25088B005BD100000B5702211021318C258C4250143AC50C4880C788D03
:202640004325888C432C58C54E08402E4D084025197450C4798879CB43037A084318685132
:20266000237E4399401818086050BD7098E7FFFD67180000B580480DF000FFA82806D1125C
:20268000E7FF480BF000FEE0480A88002800D106E7FF490820018008F7FEF9C2E002F7FEF3
:2026A000FED7E7FFE000E7FFBD8046C020004000A0004086272C2020B5702211021318C2B6
:2026C000890C884D4325798C432C58C54E09402E4D094025197450C4888879CB430378085C
:2026E00043186851235D009B4399401818086050BD7046C0CC80FFFF337F0000B510490E5C
:202700004A0E2301055C609068084220D10568084220D10268084220D0F66810041B43032A
:202720006013680806C0D405680806C0D402680806C0D5F6BD1046C00204400B0104400B96
:20274000B580B082A9019100700820010501480BF000FEF6980078014809F000FEBBE7FF10
:202760004807F000FE1D2800D001E7FFE7F8200105014802F000FDCCB002BD802000400ABE
:20278000A0004046B580B082490C480D9000F000FD279800490BF7FEFF539800F000FEF8AD
:2027A0009800210091012201F000FB84980099012202F000F967B002BD8046C06C780000BD
:2027C000A00040866BDC0000B580B084490C480D9001F000FD059801490BF7FEFF3198010B
:2027E000F000FED698012100910222019203F000FB61980199029A03F000F944B004BD80D5
:202800006C7B0000800040866BF00000B40C2900D416004A0D522303021B33FF1AD2D30F71
:20282000231F1A9AD30F02C9230107DB431940D12A0BD202321540D043010008BC0C477057
:202840002000BC0C477020001E40BC0C47700000B58020010780F000FEB92806D112E7FF61
:202860004809F000FDF1480988002800D106E7FF490620018008F7FEF8D3E002F7FEFDE8F7
:20288000E7FFE000E7FFBD8080004086272C2020B5F02211021318C2780C4D0B59464F0BDA
:2028A00040372603402619BC26A9063619A45144684C58C52607063643B54034192C50C4E1
:2028C00078486110BDF046C008080000FFFC00FFB580B082490B480C9001F000FE80980163
:2028E000490AF7FFFEE998012100F000FB5B980121102202F000F9969801F000FD39B002CA
:20290000BD8046C06C7E0000A00040466C400000B580B082490B480C9001F000FE69980128
:20292000490AF7FFFE8398012100F000FBAE980121410089221BF7FFFE2D9801F000FDD53D
:20294000B002BD806C800000800040106C4A0000B51C000AD0172300240107E442A0D2006D
:2029600000044294D9010052E7FB4290415B4290D3001A804291D2010852E7F600190002CA
:2029800000080011BD1C00012000F7FFFB20BD1CB40800430E1BD00F2BFFD011210701C936
:2029A000185B0FC102C9430B0001074802490B09051B4319BC08477021002000BC08477059
:2029C000000102400DC900C91DC90509BC084770B580B082200190000681480A9001F00034
:2029E000FDA5990098010649F000FDA0990098010609F000FD9B48046800F7FFF843B002C7
:202A0000BD8046C00000400A271C2020B406229E2800D402D104BC0647704241D404E000A5
:202A200000013A010049D5FC3180D3013201E00000490A4905D243112800D502220107D2E6
:202A400043110008BC064770B570480A4C0A4284D00C4D0A4E0A42B5D008682A68691C50E5
:202A60007812009258A247903508E7F4BF00BF00BD7046C06CD800006CCC00006CE00000D8
:202A80006CF00000B0869200460A99009201460298019205AA047010A803700199054B06E5
:202AA00018C991027800210F40089902781200925088B006477046C004440000B0839002A3
:202AC00098029001E7FF98012800D011E7FF200A9000E7FF98002800D005E7FFE7FF9800C4
:202AE0001E409000E7F6E7FF98011E409001E7EAB0034770B50600410E09397FD40D221F75
:202B00001A51D90C46860200220107D2431040C846722A00D5004240BD062000BD0600025F
:202B2000200107C02A00D4001E40BD06B510B0849C06900391029201930098029901430828
:202B4000990043089906430849034308990300894A025088B004BD100081000480044042BB
:202B6000B580B0844601A8038001210091019102880002001C40900248056800F7FEFF8290
:202B80009801F7FEFF7F9802F7FEFF7CB004BD8027282020B0859200460A99009201460214
:202BA00098019204AA037010A8028001880099047812011218894A025088B005477046C095
:202BC000120C0000B0859200460A99009201460298019204AA037010A802800188009904A0
:202BE0007812011218894A025088B005477046C0120C0000B510B0849C069003910292018F
:202C00009300980299014308990043089906430821814308990300894A015088B004BD101E
:202C200080044042B580B0849200460A460198009103A902700AAA01701098034B0418C0BE
:202C4000780978124311223FF000F8E4B004BD80110C0000B580B084A9039100700820019B
:202C600004C1910248069001F000FC6A98007800F7FFFD6698019902F000FB4AB004BD8004
:202C80002000400AB083AA027010A801700120019000E7FFAA0178101E4170112800D006A9
:202CA000E7FFA8027800990043489000E7F29800B0034770B580B08491014601980191030E
:202CC000A902700898034A051880780902C9221F02D2F000F89FB004BD8046C01108000057
:202CE000B580B084460BA9038008A8028003AB019300801A880A880346104619F7FFFB8499
:202D000098008800F000F9D0B004BD80B580B082200102824806900021009101F7FFFF5205
:202D2000980099014A03F7FFFC0FB002BD8046C0A00040426BAC0000B0814601466870014E
:202D4000210056402800D409E7FF46687801201F40012001408849026008E7FFB001477040
:202D6000E280E000B081460146687001210056402800D409E7FF46687801201F4001200110
:202D8000408849026008E7FFB0014770E280E000B081460146687001210056402800D409D5
:202DA000E7FF46687801201F40012001408849026008E7FFB0014770E100E000B081460163
:202DC00046687001210056402800D409E7FF46687801201F40012001408849026008E7FF09
:202DE000B0014770E100E000B40422042800D1022100BC044770D501320842400212321F42
:202E000000011E520049D3FC05080B0905124311BC044770B0849003910292019803680036
:202E200090009800990143889000980099029A014011430899036008B0044770B0849200D6
:202E4000460298009203AA0270119001980199037812011218894A025088B004477046C037
:202E600012080000B0849200460298009203AA0270119001980199037812011218894A0280
:202E80005088B004477046C012040000B081900049052004600898001E4049046008490440
:202EA00020006008B0014770E010E000E014E000E018E000B0849003A80270019201990395
:202EC0004A05188991009B01990078000082588843185088B004477010580000B580B082F5
:202EE00021019101028A48059000F7FFFE6B980099014A03F7FFFB28B002BD80A0004042AD
:202F00006BC40000B402219E2800D405D101BC02477039010040D5FC3080D3013101E000E4
:202F200000400A4005C94308BC024770B5B06801220143914B06681C2C00D0066825439578
:202F4000428DD20234084623E7F560846018BDB0220820204808F3808808BF00BF00F00059
:202F6000FC032800D001F7FFFD6F2000F7FFF98A2001F000FBFB46C080002020B0839100CD
:202F8000460198009102A90170089802780901091841200902425888230243185088B003C7
:202FA00047700000B580B0829001910098014904184099004A03F7FFFF2DB002BD8046C096
:202FC0001108000003FF0000B5B0460420002B00D008B2D2780D70254295D0041C641C49D6
:202FE0001E5BD1F7BDB01C60BDB00000B08290019100980049034308990100894A02508870
:20300000B00247700080000480044042B580B0824601A80180018801200F02024802F7FFE9
:20302000FEF9B002BD8046C00104400BB580B0824601A80180018801200102424802F7FF4E
:20304000FEE9B002BD8046C00138400B4A06188068020612D50568020612D50268020612F1
:20306000D4F66181477046C011080000B580B082900191009801211102091840990022015B
:203080000412F7FFFEC7B002BD80B580B0829001910098012111020918409900220303D226
:2030A000F7FFFEB8B002BD80B580B0824601A801900080017840F7FFFB4398007800F7FF1B
:2030C000FB3FB002BD800000B082900191009B0099014A03588843185088B002477046C06F
:2030E00010480000B081900099004A0458882301021B43185088B001477046C011080000F5
:20310000B082900191009B0099014A03588843185088B002477046C010880000B0829001FC
:2031200091009B0099014A03588843185088B002477046C010280000B082900191009B00D3
:2031400099014A03588843185088B002477046C010480000B082900191009B0099014A03D8
:20316000588843185088B002477046C010280000B08290019100980021804308990100899A
:203180004A015088B002477080044042B08146014668700178012030434849025840B0011E
:2031A000477046C011004040B580B0824601A8017001780148022203F7FFFE2CB002BD8002
:2031C0000100400BB580B0824601A8017001780148022230F7FFFE1EB002BD800104400B75
:2031E000B510220103121883780C609C784B508378894A015081BD10110C0000B580B082B3
:2032000090019100A80178014802F7FFFF1F9801B002BD80800040104A0568132B00D006E9
:203220004611461A32084283D1F768806008477022082020B0829001466870017800210F15
:2032400040089901220102925088B00247700000B08190009900200102C248025088B00182
:20326000477046C000012600B081900099004A0248025088B0014770080400000003B1007A
:20328000B08290019100980099014A025088B002477046C012D00000B081900099002001B8
:2032A00002C248025088B001477046C000012600B0819000980000814A0220815088B00143
:2032C000477046C080044042B0819000980000814A0220005088B001477046C08004404299
:2032E000B081900099004A0248025088B0014770080400000003B100B082900191009800F2
:2033000099014A025088B002477046C012900000B08290019100980099014A025088B00282
:20332000477046C012900000B08290019100980099014A025088B002477046C01290000073
:20334000B08290019100980099014A025088B002477046C012900000B082900191009B00C3
:203360009901209D0142588843185088B0024770B081900099004A03588823014318508859
:20338000B001477011040000B08190009900200102C248025088B001477046C000012600BA
:2033A000B0819000980049035840211040080900B001477011100000B081900099004A021F
:2033C00048025088B0014770080400000003B100B081460146687001780049026008B00130
:2033E000477046C00308400BB08190009900200102C248025088B001477046C000012600C4
:20340000B081900099004A0248025088B0014770080400000003B100B082900191009800D0
:2034200099014A025088B002477046C018080000B081900099004A03588823014318508861
:20344000B001477018040000B081900099004A035888230143985088B00147701804000006
:20346000B08190009900200102C248025088B001477046C000012600B081900099004A02B0
:2034800048025088B0014770080400000003B100B580B0829001990148024348F7FEFE1375
:2034A000B002BD8038800001B08190009900201102025888230143185088B0014770B08204
:2034C000900191009801212701C9584099004008B0024770B0829001466870017800990149
:2034E000224501925088B0024770B08190009900201102025888230143185088B001477063
:20350000B580B08220019001F7FFFC2C9801F7FFFC55B002BD80B580B08290019901207D76
:2035200000C04348F7FEFE0EB002BD80B0829001910098009901229501525088B00247707F
:20354000B0829001910098009901229501525088B0024770B082900191009800990122955D
:2035600001525088B0024770490368082201021243906008477046C00108400B49036808BC
:203580002201031243106008477046C00104400BB081900099004A0220015088B001477024
:2035A00011080000B580B0824601A80170017800F7FFF8C6B002BD80B08290019100980122
:2035C0008800990088091A40B0024770B08190009800218101495840B2C0B0014770B510FA
:2035E000220103121883780C605C78495081BD10B510220103121883780C609C78495081AF
:20360000BD10B5102300429AD0035CCC54C41C5BE7F9BD10B580460B210358421DC1461862
:20362000F000F860BD8000004902680822014390600847700108400B4902680822104310A1
:2036400060084770013C400B490268082205431060084770E010E000B580207D0200F7FFD5
:20366000FC15F7FFFFF1BD80B580460A210358414610F000F82BBD806828210143C9400828
:203680006822400A47700000460B4611461AB580F000F80FBD8021005C421C492A00D1FB14
:2036A0001E48477021005C421C492A00D1FB1E4847702300429AD00254C11C5BE7FA4770C1
:2036C000B580F7FFFB23F7FFFC09BD80460A2100B580F7FFFFEEBD80B58046012008F7FD0B
:2036E000FDA7BD80B580F7FFFF8CBD80B580F7FFFD85BD80B580F7FEFED9BD80BE00477059
:20370000BE004770BE004770BE004770BE004770BE004770BE004770BE004770BE00477001
:20372000BE004770BE004770E4144770BE004770BE004770BE004770BE004770BE004770A7
:20374000BE004770BE004770BE004770BE004770BE004770BE004770BE004770BE004770C1
:10376000BE004770BE00477020014770BF00E7FEF3
:20377000000000000000000000000000000000000000000000000000000000000000000039
:20379000000000000000000000000000000000000000000000000000000000000000000019
:2037B0000000000000000000000001C001C001C001C001C001C001C00080008000800080B2
:2037D0000080008000800000000000000000018003C003C0018000000000000000000000D1
:2037F0000000000000001CE01CE01EF00E700738031801080084000000000000000000004E
:20381000000000000000000000000000000000000000000000000000000000000000000098
:20383000000000000000000000000000102010201020102010207FFE7FFE08100810081046
:2038500008100810081008107FFE7FFE0408040804080408040800000000000000000000C2
:2038700000000000000000000100010007C0196031103118391839180138017001E003C07C
:2038900007800F001D0039003100311C311C310C110C0D1807E001000100010000000000F8
:2038B000000000000000000000000000101C183608630C63046304630263026301631D3655
:2038D000379C2280638063406340632063206330221036181C0800000000000000000000FD
:2038F00000000000000000000000000000F00198018C018C018C018C008C00CC00783E18D5
:20391000081C083608320463046304C303C343834306268E1C780000000000000000000049
:20393000000000000000001C003C003C003000300010000C00060000000000000000000061
:20395000000000000000000000000000000000000000000000000000000000000000000057
:2039700000000000000040002000100008000C00040006000300030003000180018001801D
:2039900001800180018001800180030003000300060006000C0008001000200040000000F9
:2039B000000000000000000200040008001000300020006000C000C000C001800180018066
:2039D0000180018001800180018000C000C000C00060006000300010000800040002000004
:2039F000000000000000000000000000000000000100038003800100711C793C3D7807C0F1
:203A1000010007C03D78793C711C010003800380018000000000000000000000000000004F
:203A300000000000000000000000000000000000000001000100010001000100010001006F
:203A50007FFC010001000100010001000100010000000000000000000000000000000000D4
:203A7000000000000000000000000000000000000000000000000000000000000000000036
:203A900000000000000000000000000000000000001C003C003C003000300010000C000600
:203AB0000000000000000000000000000000000000000000000000000000000000000000F6
:203AD0007FFE00000000000000000000000000000000000000000000000000000000000059
:203AF0000000000000000000000000000000000000000000000000000000000000000000B6
:203B100000000000000000000000000000000018003C003C001800000000000000000000ED
:203B300000000000000040006000200030001000180008000C000400060002000300010039
:203B50000180008000C00040006000200030001000180008000C000400060002000000005C
:203B700000000000000000000000000007C00C601830301830182018600C600C600C600C42
:203B9000600C600C600C600C600C20183018301818300C6007C000000000000000000000B6
:203BB0000000000000000000000000000100018001F80180018001800180018001800180F3
:203BD00001800180018001800180018001800180018003C01FF80000000000000000000072
:203BF00000000000000000000000000007E01C10180830043004300C300C30001800080052
:203C10000400020001000080004020202010200830041FFC1FFC00000000000000000000CB
:203C300000000000000000000000000003E00E180C0C180C180C180C18000C00060003C0FA
:203C50000E001800100030003000300C300C100C180C0C1803E000000000000000000000FF
:203C70000000000000000000000000000C000E000E000F000E800E800E400E600E200E10D9
:203C90000E100E080E040E047FFE0E000E000E000E000E000E007FC00000000000000000AC
:203CB0000000000000000000000000003FF03FF00010001000100008000807C80C28181823
:203CD00010083000300030003000300C300C180418040C0803F00000000000000000000045
:203CF0000000000000000000000000000F8010C030203010001800180008000C0F8C186C62
:203D1000303C601C600C600C600C600C601820183030186007C000000000000000000000AC
:203D30000000000000000000000000003FF83FF8101C080C080404040400020002000100A8
:203D50000100010000800080008000C000C000C000C000C000C00000000000000000000051
:203D700000000000000000000000000007E00C301818300C300C300C301C1838087007E031
:203D900007B00E181C0C38063006300630063006180C0C1803E000000000000000000000CD
:203DB00000000000000000000000000003E00418080C180C10063006300630063006380690
:203DD0003C0C361831F030001800180018000C0C060C030C01F0000000000000000000007A
:203DF0000000000000000000000000000000000000000000000000000000018003C003C0AC
:203E10000180000000000000000000000000018003C003C001800000000000000000000089
:203E3000000000000000000000000000000000000000000000000000000000C000C00000F2
:203E500000000000000000000000000000000000000000C000C00080008000400040000052
:203E700000000000000000000000200010000800040006000300018000C000600030001804
:203E9000000C00180030006000C001800300060004000800100020000000000000000000D8
:203EB00000000000000000000000000000000000000000000000000000007FFE0000000075
:203ED0000000000000007FFE00000000000000000000000000000000000000000000000055
:203EF000000000000000000000000004000800100020006000C00180030006000C001800A8
:203F1000300018000C0006000300018000C000600020001000080004000000000000000057
:203F30000000000000000000000007C0183030086008600C601C601C601C30001C00060090
:203F50000100008000800080008000000000018003C003C0018000000000000000000000C8
:203F700000000000000000000000000007C01860301020182F0C4D8C4C864CC64CC64C66BE
:203F9000446644662666266615661CCC400C20083018183007C00000000000000000000077
:203FB00000000000000000000000010001C001C001C0014003600320032003200630061054
:203FD000061006100FF80C080C080C080C0C1804180418067C1F0000000000000000000059
:203FF00000000000000000000000000007FE1C183818301830183018301818180C1807F8B5
:2040100018183018201860186018601860186018301818180FFE0000000000000000000003
:2040300000000000000000000000000027C0386030102018400C400C0004000600060006CB
:2040500000060006000600060006400C400C200C3018183007C00000000000000000000017
:2040700000000000000000000000000003FE0E181818301830183018601860186018601821
:204090006018601860186018601830183018101818180E1803FE00000000000000000000A9
:2040B0000000000000000000000000003FFE30182018601840180018081808180C180FF8E0
:2040D0000C180818081800180018001840184018201830183FFE00000000000000000000B7
:2040F0000000000000000000000000007FFE70184018C018801800181018101818181FF834
:204110001818101810180018001800180018001800180018007E00000000000000000000E9
:2041300000000000000000000000000013C01C7010101018200C200C00040006000600065A
:2041500000060006FC0630063006300C300C30183018083007C000000000000000000000CE
:204170000000000000000000000000007E3F180C180C180C180C180C180C180C180C180C2E
:204190001FFC180C180C180C180C180C180C180C180C180C7E3F00000000000000000000F3
:2041B0000000000000000000000000001FF80180018001800180018001800180018001804F
:2041D00001800180018001800180018001800180018001801FF800000000000000000000AE
:2041F0000000000000000000000000007FE00600060006000600060006000600060006001A
:20421000060006000600060006000600060006000600060006000600060E030E018E00FC96
:204230000000000000000000000000007C7E1818081804180618021801180198019801D8AC
:2042500003B80338071806180E180C181C18181830183018FC7E0000000000000000000063
:20427000000000000000000000000000007E001800180018001800180018001800180018D8
:2042900000180018001800180018001840184018201830183FFE0000000000000000000011
:2042B000000000000000000000000000F81F381C381C381C3C1C343434343434363432743B
:2042D000326432643264316431C431C431C430C430C43084FC9F0000000000000000000061
:2042F0000000000000000000000000007C1F101C103C103410341074106410E410C411C47E
:20431000118413841304170416041E041C041C041C041804181F0000000000000000000040
:2043300000000000000000000000000003C00C3018181008300C300C600660066006600616
:2043500060066006600660066006200C300C100818180C3003C000000000000000000000A0
:204370000000000000000000000000000FFE181830186018601860186018601830181818D8
:204390000FF8001800180018001800180018001800180018007E00000000000000000000B0
:2043B00000000000000000000000000003C00C301818100C300C200C6006600660066006A2
:2043D0006006600660066006600661E4332C321C16180E3007C04C007C00380000000000AA
:2043F00000000000000000000000000007FE1C183818301830183018301818180C1807F8B1
:20441000039803180718061806180E180C180C181C181818787E00000000000000000000B3
:2044300000000000000000000000000027E038303018200C200C000C000C0018007803E0D2
:204450000F801E00380070006000600460046008301818380FC800000000000000000000F8
:204470000000000000000000000000003FFC218C6184418241820180018001800180018054
:20449000018001800180018001800180018001800180018007E0000000000000000000001B
:2044B0000000000000000000000000007C3F100C100C100C100C100C100C100C100C100C35
:2044D000100C100C100C100C100C100C100C100C0808043803E000000000000000000000BD
:2044F000000000000000000000000000F83E201820182018103010301030103008600860FE
:2045100008600CE004C004C004C003800380038003800100010000000000000000000000DD
:20453000000000000000000000000000F3DF618621862186218C210C238C138C138C138CFE
:20455000134C125816580E580E380E380E380C300410041004100000000000000000000064
:204570000000000000000000000000003E7E08180838043004300270026001E001C001C070
:204590000180038003400740062006200C100C10180818087C3E00000000000000000000FF
:2045B0000000000000000000000000007C7E101C1018081808300C3004700460026002C00D
:2045D00002C001C00180018001800180018001800180018007E00000000000000000000059
:2045F0000000000000000000000000003FF8181818080C040E0406000700030003800180EE
:2046100001C000C000E000600070003020382018101C180C1FFE000000000000000000002C
:204630000000000000003FC00040004000400040004000400040004000400040004000406B
:2046500000400040004000400040004000400040004000400040004000403FC0000000000B
:204670000000000000000000000000080018001800100030002000600060004000C0008052
:20469000018001800100030002000600060004000C0008001800180010003000200000004E
:2046B00000000000000003FC020002000200020002000200020002000200020002000200D3
:2046D000020002000200020002000200020002000200020002000200020003FC00000000B1
:2046F000000000000000078006C00820101000000000000000000000000000000000000015
:20471000000000000000000000000000000000000000000000000000000000000000000089
:20473000000000000000000000000000000000000000000000000000000000000000000069
:20475000000000000000000000000000000000000000000000000000000000000000FFFF4B
:20477000000000000000007800C001000000000000000000000000000000000000000000F0
:20479000000000000000000000000000000000000000000000000000000000000000000009
:2047B000000000000000000000000000000000000000000000000000000003F006180C0CC0
:2047D0000C0C0C000F800C700C1C0C0C0C060C064C064F0C38F80000000000000000000059
:2047F000000000000000000000000010001E0018001800180018001800180F1818D830386C
:20481000603860186018601860186018601820183038187807C80000000000000000000021
:20483000000000000000000000000000000000000000000000000000000007C00C701818F5
:204850001818180C000C000C000C000C200C20181018083007C00000000000000000000039
:204870000000000000000000000010001E001800180018001800180018001BE01C301818F3
:204890001818180C180C180C180C180C180C18081C187A3009E00000000000000000000019
:2048B000000000000000000000000000000000000000000000000000000007C00C301818B5
:2048D0001008300C300C3FFC000C000C000C20181018187007C0000000000000000000002A
:2048F0000000000000000000000000003E00C380C080C0C000C000C000C01FFC00C000C08C
:2049100000C000C000C000C000C000C000C000C000C000C00FF80000000000000000000000
:20493000000000000000000000000000000000000000000000000000000077C06C3018106C
:2049500018181818181818100C3007F0001800180FF03FF07008600C600C600C38380FE0E3
:20497000000000000000000000000010001E0018001800180018001800180F9818D830386A
:204990003018301830183018301830183018301830183018FC7E00000000000000000000BD
:2049B000000000000000000000000000038003800380000000000000010001F80180018062
:2049D00001800180018001800180018001800180018001801FF800000000000000000000A6
:2049F00000000000000000000000000038003800380000000000000010001F801800180020
:204A100018001800180018001800180018001800180018001800180018000C18061803F019
:204A3000000000000000000000000010001E0018001800180018001800183E180C18061810
:204A500003180118019801D80338071806180C181C1818187C7E00000000000000000000A6
:204A700000000000000000000000010001F8018001800180018001800180018001800180A3
:204A900001800180018001800180018001800180018001801FF800000000000000000000E5
:204AB00000000000000000000000000000000000000000000000000000081CEE339C318C48
:204AD000318C318C318C318C318C318C318C318C318C318C7BDE000000000000000000000B
:204AF00000000000000000000000000000000000000000000000000000100F1E18D8303811
:204B10003018301830183018301830183018301830183018FC7E000000000000000000003B
:204B3000000000000000000000000000000000000000000000000000000007C01C703010D2
:204B50003018600C600C600C600C600C600C30183018183007C000000000000000000000D6
:204B700000000000000000000000000000000000000000000000000000100F9E1858303890
:204B9000201860186018601860186018601830183038187807980018001800180018007E40
:204BB000000000000000000000000000000000000000000000000000000023C03C30381846
:204BD0003018300C300C300C300C300C300C300838183C3033E03000300030003000FC0052
:204BF00000000000000000000000000000000000000000000000000000603C7E6660616004
:204C100000E000E00060006000600060006000600060006007FE00000000000000000000BF
:204C3000000000000000000000000000000000000000000000000000000027E038303018AD
:204C500020180018007003E00F801C0030043004300C181C0FEC0000000000000000000023
:204C70000000000000000000000000000000000000800080008000C000E01FFC00C000C069
:204C900000C000C000C000C000C000C000C020C020C011800F000000000000000000000064
:204CB00000000000000000000000000000000000000000000000000020103C1E30183018CA
:204CD000301830183018301830183018301830183818F43013E0000000000000000000001D
:204CF00000000000000000000000000000000000000000000000000000003C7E181808189A
:204D100008380430043002700260026001E001C001C000C000800000000000000000000002
:204D30000000000000000000000000000000000000000000000000000000F7DF638E230C6D
:204D5000238C238C13981398165816580E700E700E700420042000000000000000000000F1
:204D700000000000000000000000000000000000000000000000000000003EFC08700470FD
:204D900004E002C001C003800380074006600C200C1018187E3E00000000000000000000B5
:204DB00000000000000000000000000000000000000000000000000000007C7E1818081899
:204DD0000830083004300460046002C002C002C0018001800180008000800080004C003C86
:204DF00000000000000000000000000000000000000000000000000000001FFC0C0C0E045E
:204E1000060403000380018000C000E0207020303038181C1FFC000000000000000000003A
:204E3000000000000000300008000400040004000400040004000400040004000400020000
:204E500001800200040004000400040004000400040004000400040004000800300000005B
:204E7000010001000100010001000100010001000100010001000100010001000100010012
:204E90000100010001000100010001000100010001000100010001000100010001000100F2
:204EB000000000000000000C00100020002000200020002000200020002000200020004046
:204ED00001800040002000200020002000200020002000200020002000200010000C000085
:204EF0000000003800C44086610222001C000000000000000000000000000000000000003F
:204F1000000000000000000000000000000000000000000000000000000000000000000081
:204F3000000000000000000000000000000000000000000000000000000000000000000061
:204F50000000000000000000000000000000000000000000000000000060006000600060C1
:204F7000006000600060004000200020002000000000000000600060006000000000000041
:204F900000000000066006600330019800880044000000000000000000000000000000009D
:204FB000000000000000000000000000000000000000000000000000021002100210021099
:204FD00007FE07FE0208010801080108010807FE07FE01040104010401040000000000006B
:204FF0000000000000000040004001F00358034C03CC004C0058007000E001C001C00340FE
:20501000034C035C034C014800F00040004000000000000000000000010E010A009100918E
:20503000009100510051003A03AE02A0045004500448044804480284038400000000000007
:2050500000000000000000000038006C006C006C006C006C002C0798011C011A0133013381
:20507000016300E308C309C6073C00000000000000000000000C001C0010001000080004A8
:20509000000000000000000000000000000000000000000000000000000000000000000000
:2050B000000000000400020001000080008000400040002000200020002000200020002079
:2050D0000040004000800080010002000400000000000000000200040008001000100020EB
:2050F000002000400040004000400040004000400020002000100010000800040002000052
:20511000000000000000000000000000004000C000400C460F4E01D001F00F5E0C460040CF
:2051300000400040000000000000000000000000000000000000000000000000000000409F
:2051500000400040004000400FFE00400040004000400040000000000000000000000000F2
:2051700000000000000000000000000000000000000000000000000000000000000000001F
:2051900000000000000C001C001000100008000400000000000000000000000000000000AB
:2051B000000000000000000007FE00000000000000000000000000000000000000000000DA
:2051D0000000000000000000000000000000000000000000000000000000000000000000BF
:2051F00000000000001C001C001C000000000000000000000400060002000300010001003A
:2052100000800080004000400060002000200010001000080008000C000400060002000016
:205230000000000000000000000000F00198030C030C060606060606060606060606060663
:205250000606030C030C019800F0000000000000000000000000000000000040007C00606F
:2052700000600060006000600060006000600060006000600060006003FC0000000000009F
:205290000000000000000000000000F8018403020306030603000100018000C000600020A5
:2052B000001002080204020603FE00000000000000000000000000000000007800C60186F0
:2052D00001860180018000C00070018001000300030003060306018600F8000000000000EC
:2052F000000000000000000000000180018001C001A001A0019001880188018401820FFEE1
:20531000018001800180018007E00000000000000000000000000000000003FC000400048B
:2053300000040004000400F4018C030403000300030603060182018400F8000000000000B1
:205350000000000000000000000001E00318030C000C0004000601E60316060E06060606F0
:2053700006060604020C031800F00000000000000000000000000000000007F8060C0204D7
:20539000010401000100008000800040004000400060006000600060006000000000000056
:2053B0000000000000000000000001F8030C060606060606020C031C00F001C8030C0606B0
:2053D000060606060606030C01F00000000000000000000000000000000000F0010C030C8D
:2053F00002060606060606060706068C0678060003000300010C018C007800000000000036
:20541000000000000000000000000000000000000000000000E000E000E0000000000000DC
:205430000000000000E000E000E000000000000000000000000000000000000000000000BC
:2054500000000000006000600000000000000000000000000000006000600040002000203C
:205470000000000000000000040002000100008000400020001000080004000800100020E1
:20549000004000800100020004000000000000000000000000000000000000000000000035
:2054B0000000000007FE00000000000007FE000000000000000000000000000000000000D2
:2054D000000000000000000000040008001000200040008001000200040002000100008036
:2054F000004000200010000800040000000000000000000000000000000003E006180C040F
:205510000C040C0C0C0C070001800040004000400000000000E000E000E000000000000053
:20553000000000000000000000E00318020C05CC0564056605A604B604B604B604B602B662
:2055500001E4040C020C031800F0000000000000000000000000000000000060006000501D
:2055700000D00090009000880188010801F8030403040204020206020F0F000000000000DA
:205590000000000000000000000000FE038C030C030C030C030C018C00FC030C020C060C7A
:2055B000060C060C060C030C01FE0000000000000000000000000000000003E00318060C87
:2055D000040C04040006000600060006000600060406040C020C031800F00000000000004C
:2055F00000000000000000000000007F018C030C030C060C060C060C060C060C060C060CF3
:20561000060C030C030C018C007F0000000000000000000000000000000003FF0306040629
:20563000040600060086008600FE008600860086000604060406020603FF0000000000008A
:205650000000000000000000000003FF03060406040600060086008600FE00860086008679
:205670000006000600060006001F0000000000000000000000000000000000F00118020CCC
:20569000020C020400060006000600060FC603060306030C030C031800F0000000000000BE
:2056B000000000000000000000000F0F06060606060606060606060607FE0606060606064B
:2056D00006060606060606060F0F0000000000000000000000000000000003FC00600060AD
:2056F00000600060006000600060006000600060006000600060006003FC0000000000001B
:205710000000000000000000000007F800C000C000C000C000C000C000C000C000C000C0FA
:2057300000C000C000C000C000C000C60066003C0000000000000000000003CF018600C612
:205750000046002600160036002E006E004600C60086018601060306078F00000000000026
:2057700000000000000000000000001F0006000600060006000600060006000600060006BE
:20579000000604060406020603FF00000000000000000000000000000000070703860386B5
:2057B000038E038E034E034E034A035A035A033A033203320332031207870000000000008F
:2057D000000000000000000000000F8E020C021C021C0234023402640264024402C4028408
:2057F0000384038403040304021F0000000000000000000000000000000000F00198030CC4
:20581000020C06060606060606060606060606060606020C030C019800F000000000000064
:205830000000000000000000000000FF030606060606060606060606038600FE0006000681
:205850000006000600060006001F0000000000000000000000000000000000F00198030C69
:20587000020C06060606060606060606060606060676024C03CC019800F00780030000000A
:205890000000000000000000000001FF03060606060606060606030600FE004600C6008626
:2058B00001860306030606060E0F0000000000000000000000000000000002F8030C020605
:2058D00002060006000E003C00F803E003800700060206020606030C01F0000000000000DF
:2058F0000000000000000000000007FE0462086108610060006000600060006000600060BB
:20591000006000600060006001F800000000000000000000000000000000071E020C020CBD
:20593000020C020C020C020C020C020C020C020C020C020C020C011800F0000000000000B4
:2059500000000000000000000000070F020601040104010C010C0088008800980098005065
:2059700000500070003000200020000000000000000000000000000000000EF70462044236
:20599000044604460264026402E402E4029C019C01980198018800880088000000000000C5
:2059B00000000000000000000000079E010C01080118009000B0006000200060006000D0B3
:2059D0000090018801080304078E000000000000000000000000000000000F0F04060204CB
:2059F000020C0108011800B800B0007000600060006000600060006001F800000000000056
:205A10000000000000000000000007FC020C03060102018000800040004000200020001088
:205A300000180408040C020403FE0000000000000000000003E00020002000200020002098
:205A50000020002000200020002000200020002000200020002000200020002003E0000093
:205A700000000000000000000004000400080008001000100010002000200040004000C04E
:205A90000080008001000100020002000200040000000000007C004000400040004000402E
:205AB00000400040004000400040004000400040004000400040004000400040007C0000DA
:205AD0000000006000900108000000000000000000000000000000000000000000000000BD
:205AF000000000000000000000000000000000000000000000000000000000000000000096
:205B10000000000000000000000000000000000000000000000000000000000000000FFF67
:205B30000000000000180060000000000000000000000000000000000000000000000000DD
:205B5000000000000000000000000000000000000000000000000000000000000000000035
:205B70000000000001F0030C030C030003E0031C030E030603060B8E0E7C000000000000BB
:205B900000000000000000000008000E000C000C000C000C01CC033C061C060C060C060C4B
:205BB000060C060C020C031C01E4000000000000000000000000000000000000000000009F
:205BD0000000000000F0018C018C01860006000600060206020C010C00F0000000000000FF
:205BF0000000000000000000020003C003000300030003000378038C030C03060306030690
:205C1000030603060304078C0178000000000000000000000000000000000000000000004F
:205C30000000000001E003180208060C060C07FC000C000C0418021801E0000000000000F8
:205C50000000000000000000000003C0066006300030003001FE0030003000300030003086
:205C7000003000300030003001FC0000000000000000000000000000000000000000000057
:205C90000000000007F006D8018C018C018C019800F8000C00FC03CC03060306038E00F875
:205CB00000000000000000000008000E000C000C000C000C01EC031C030C030C030C030C46
:205CD000030C030C030C030C079E0000000000000000000000000000000000600060000013
:205CF00000000040007C00600060006000600060006000600060006003FC00000000000079
:205D10000000000000000000000001C001C000000000010001F0018001800180018001807A
:205D300001800180018001800180018000CC007C00000000000000000008000E000C000CD7
:205D5000000C000C038C008C008C004C006C005C008C018C010C030C079E00000000000086
:205D700000000000000000000040007C006000600060006000600060006000600060006097
:205D9000006000600060006003FC0000000000000000000000000000000000000000000074
:205DB00000000000073706EE066606660666066606660666066606660FFF00000000000033
:205DD000000000000000000000000000000000000000000001EE031C030C030C030C030C69
:205DF000030C030C030C030C079E00000000000000000000000000000000000000000000B2
:205E10000000000000F00198030C06060606060606060606030C030C00F000000000000090
:205E3000000000000000000000000000000000000000000001EE031C060C060C060C060CFC
:205E5000060C060C030C031C01EC000C000C003E000000000000000000000000000000009D
:205E7000000000000278038C030C030603060306030603060304038C03780300030007C0EF
:205E90000000000000000000000000000000000000000000039F065806380018001800186C
:205EB000001800180018001800FF0000000000000000000000000000000000000000000073
:205ED0000000000003F0031C020C020C003800F003C003040304038C01FC000000000000FF
:205EF000000000000000000000000000002000200030003001FE0030003000300030003003
:205F1000003000300230023001E000000000000000000000000000000000000000000000CC
:205F300000000208038E030C030C030C030C030C030C030C030C079C017800000000000022
:205F50000000000000000000000000000000000000000000071E020C010801080118009043
:205F700000B000B000600060002000000000000000000000000000000000000000000000D1
:205F9000000000000EF7046204460264026402EC019C019801980198000800000000000012
:205FB000000000000000000000000000000000000000000007BC0118011000B00060006074
:205FD00000E0009001080308079E0000000000000000000000000000000000000000000088
:205FF00000000000079E0108010801080090009000B0006000600060002000200024001C61
:20601000000000000000000000000000000000000000000001FC018400C400440060002066
:20603000003002180208030C01FC000000000000000000000300008000800080008000806D
:2060500000800080008000400020004000800080008000800080008000800080030000000D
:20607000004000400040004000400040004000400040004000400040004000400040004010
:206090000040004000400040004000400040004000000000000C0010001000100010001094
:2060B00000100010001000200040002000100010001000100010001000100010000C000094
:2060D0000000001C042204C203800000000000000000000000000000000000000000000025
:2060F000000000000000000000000000000000000000000000000000000000000000000090
:20611000000008000808080808080000181800004800246C0012000000000000000000001D
:20613000000024002424127F1212127F1212000000001C082A2A0C0A28182A281C2A080803
:206150000000220015251515582A54542254000000000C0012120A12257611296E910000E9
:206170000600040600030000000000000000000040001020081008080808100820100040CC
:20619000020008041008101010100810040800020000000008081C6B6B1C08080000000035
:2061B0000000000008080808087F08080008000000000000000000000000000006060304FD
:2061D000000000000000000000FE00000000000000000000000000000000000006060000A5
:2061F0000000408020401020081004080204000200001800422442424242424218240000CD
:2062100000000800080E0808080808083E08000000003C0042422042102004087E420000BC
:2062300000003C0042421820402042401C22000000002000283024242222207E78200000FC
:2062500000007E0002021A02402642401C2200000000380002241A024226424218240000C8
:2062700000007E0022221010080808080808000000003C0042422442241842423C42000098
:206290000000180042244242586440401C2400000000000000001818000000001818000010
:2062B0000000000000000800000000000800040800004000102004080402100840200000B8
:2062D000000000000000007F0000007F0000000000000200080420102040081002040000F4
:2062F00000003C0042424046102000101818000000001C005A2255555555422D1C2200003F
:2063100000000800180814143C244222E742000000001F0022221E22422242421F22000064
:2063300000007C0042420101010142011C22000000001F0042224242424242421F22000078
:2063500000003F0012421E12121242023F42000000003F0012421E1212120202070200008D
:2063700000003C0022220101710122211C2200000000E70042424242427E4242E74200003C
:2063900000003E0008080808080808083E08000000007C00101010101010101010100F11ED
:2063B0000000770012220E0A120A2212772200000000070002020202020202027F42000049
:2063D00000007700363636362A2A2A2A6B2A00000000E30046464A4A52526252476200001D
:2063F00000001C0041224141414141411C22000000003F0042424242023E020207020000B6
:2064100000001C00412241414141534D1C32006000003F0042423E4212122222C7420000E7
:2064300000007C0042420402201842403E42000000007F0008490808080808081C080000E8
:206450000000E70042424242424242423C4200000000E70042422422142418140808000092
:2064700000006B004949494955552236222200000000E7002442182418182424E74200000D
:206490000000770022221414080808081C08000000007E0020211010040842043F42000013
:2064B000780008080808080808080808080800780000020204040808100820102020404058
:2064D0001E00101010101010101010101010001E3800004400000000000000000000000034
:2064F0000000000000000000000000000000FF00060000080000000000000000000000007F
:206510000000000000003C0078424244FC4200000000030002021A02422642421A26000062
:2065300000000000000038000244020238440000000060004040784042444242D86400006F
:206550000000000000003C007E4202023C4200000000F00008887E08080808083E08000041
:206570000000000000007C002222021C423C3C420000030002023A0242464242E7420000B9
:2065900000000C00000C0E00080808083E08000000003000003038002020202020201E22C7
:2065B00000000300020272020A1212167722000000000E0008080808080808083E080000DF
:2065D0000000000000007F0092929292B79200000000000000003B0042464242E74200002B
:2065F0000000000000003C00424242423C4200000000000000001B00422642421E22070279
:206610000000000000007800424442427844E0400000000000007700044C04041F0400001A
:206630000000000000007C000242403C3E4200000000000008003E080808080830080000E8
:20665000000000000000630042424242DC620000000000000000E7002442142408080000EC
:20667000000000000000EB0049495555222200000000000000007600182418186E2400002B
:20669000000000000000E70024421424081807080000000000007E00102208087E440000B4
:2066B000C00020202020102020202020202000C010101010101010101010101010101010DA
:2066D00006000808080810080808080808080006320C00C200000000000000000000000036
:2066F0000000000000000000000000000000040404040004040000001414000A0000000040
:206710000000000000000A0A0A1F1F0A0A0A00000400150E0605140C0E150004000015124F
:20673000150D2C2E122A000000000A04360A151516290000020200010000000000000000D5
:20675000081004080404040408080010040208040808080804040002000004000E15150E4F
:2067700000040000000008003E0808080000000000000000000000000202000100000000A2
:206790003F000000000000000000000000000000020000002000101008080404020200014B
:2067B0000000110E111111110E11000000000604040404040E0400000000110E08110204DD
:2067D0001F0100000000110E0C1010100E11000000000C080A0C1F091C0800000000011F79
:2067F0000F0110110E1100000000120C0D0111130E1100000000101E08080404040400007C
:206810000000110E0E1111110E1100000000110E1911101606090000000000000004000067
:206830000400000000000000040000000400000400000810020404021008000000000000FC
:20685000003F003F000000000000040210080810020400000000110E08110404040000002A
:206870000000221C2D291D2D1C220000000004040A0C1E0A331200000000120F0E121212FC
:206890000F1200000000111E010101010E1100000000120F121212120F1200000000121FBA
:2068B0000E0A020A1F1200000000121F0E0A020A070200000000121C010111390C1200007D
:2068D000000012331E121212331200000000041F040404041F0400000000083E080808080E
:2068F0000808070900001237060A120A3712000000000207020202023F22000000001B3BE2
:206910001B1B1515351500000000123B16161A1A171200000000110E111111110E11000065
