:20000000800020203B8500003B7900003B6D00000000000000000000000000000000000004
:200020000000000000000000000000003BA1000000000000000000003B7D00003BA500004C
:200040003B69000012D500003BC100003BD100002B4D0000292D00003B5D00003B6100000B
:20006000000000003B9900003B9D000000000000000000003BC900003BCD00003BC50000C8
:200080003BB100003BB900003BA900003BAD00003BBD00003BB500000000000000000000CC
:2000A0003B7100003B75000000000000000000003B590000000000003B8100003B650000F4
:2000C000B5F0B0FFB08C93044615460698909000918A68344620F003FD0618202100918914
:2000E00090024284D24422009285A885920373021C64460F1E6078002800D0342825D00608
:20010000603446299A0447901C7F1C64E7F2980343C0900197891C60900360307820A985BF
:2001200073082873D109A98AAA8946289B04F000F82199899C039A01E011AC05A985AA8AF3
:200140004620F000F8354602462046299B0047981C419A014611D00019C191899C031C486F
:200160009802D1BEE000463A4610B07FB00CBDF0460AE7F9B5F8460468081D05600D680674
:200180002E00D01194004614461D4630F003FCAB4607682019C06020240042BCDA075D3031
:2001A000990047A81C64E7F8200046214798BDF8B5F0B0859201460E4604207F00801825D6
:2001C0002700970321FF910231FE22204620F003FC839504706F7B302825D0521C6B2878A9
:2001E000D0132864D011286FD00F2863D1209A0168101D0160116801B2C8424741479A028B
:20020000461030FC18207029E014461DA903AA0446309B01F000F83B980399042800D00372
:200220001E48222D700AE00046089A02462BE00146289A021A1929004625DC011A611C4DE1
:200240001C410053260046284632F003F8842F00D0021C417006E000460142A1D8061E4851
:200260001A611C492220F003FC3770261B2922204620F003FC314620F003FC3519C0B0057C
:20028000BDF020007060202570202001E7F7B5F84614460D46067B074619F000F8147B31BE
:2002A0002964D1042800D5022101602942402F6FD001210AE00021082F78D10021104622FC
:2002C000F000F812BDF87B002864D005286FD0032878D0012870D10468081D02600A6800EA
:2002E00047702000477046C0B5F84614460D46062800D10468201E416021213070014F0A44
:200300002E00D00D46304629F000F810460143691A715C7968221E53602370114606E7EF81
:200320006820F003FBE0BDF870740000B5802910D0032908D10308C0BD800900BD80F0024B
:20034000FC85BD80B5F0B0974614460D4606991E9A1D981CAF169701803EAE1596028035AD
:20036000AD149503702CAC138023AB128018A81190047002AA107011AA0C210091057011E9
:200380009916AA09801178000841A80E90067001780108C8900707491C4029009008D101CD
:2003A000980790089B049A06990298019D039E08781C4374AE0A80349C143C20702C880066
:2003C0008809781218821E52781B18CB1E5BB292B29BF002F99D9805A90B8008E7FFA80B7E
:2003E0008800A90A88094288DB00E0ABA8117800280CD10CE7FFA8147800210C4341485557
:200400001840A90B88095C40A90F7008E034A81178002810D10BE7FFA81478000101484C6A
:200420001840A90B88095C40A90F7008E023A81178002818D10CE7FFA81478002130434113
:2004400048421840A90B88095C40A90F7008E011A81178002820D10BE7FFA81478000181C7
:2004600048391840A90B88095C40A90F7008E000E068E7FFE7FFE7FFA90D20007008E7FF84
:20048000A80D78002807DC57E7FFA81078002800D124E7FFA80F7800A90D780940C807C07F
:2004A0002800D005E7FFA8138800F002FFC3E004A8128800F002FFBEE7FF980C1C41A80CF2
:2004C00070017800A90E7809F002FBC02900D104E7FFA90C20007008E02EE027A80F7800D9
:2004E000A90D780940C807C02800D009E7FFA8168800A9158809AA138812F002FDA7E7FFA7
:2005000098161C41A81680018800A90988091A40A90E78094288D108E7FF9809A9168008C3
:2005200098151C40A9158008E006E7FFE7FF980D1C40A90D7008E7A3E7FF980B1C40A90B68
:200540008008E74CB017BDF03BE0000053A00000657000006B600000B580B092F000FA73EA
:200560002001900504819101486B9002F003F9F320649003F003F9A299019802F003F8C600
:200580009803F003F99B980299050609F003F8BE9803F003F9932011F002FD122078F00372
:2005A000F98D2036F002FD0C2070F003FA1B203AF002FD0620059006F003FA1420B2F002FD
:2005C000FCFF200C9004F003FA0D9804F003FA0A2000F003FA072033900BF003FA03980B3E
:2005E000F003FA0020B7F002FCEB2035F003F9FA20BBF002FCE52032F003F9F420C2F0026F
:20060000FCDF9805F003F9EE20C3F002FCD92015900FF003F9E720C4F002FCD22020F00360
:20062000F9E120C6F002FCCC200FF003F9DB20D09007F002FCC520A4F003F9D420A1F003D8
:20064000F9D120E0F002FCBC9807F003F9CB20089008F003F9C7200E9009F003F9C32009BE
:20066000900AF003F9BF980AF003F9BC9806F003F9B920319010F003F9B5980BF003F9B2D5
:200680002048900CF003F9AE2017900DF003F9AA2014900EF003F9A6980FF003F9A3981010
:2006A000F003F9A020349011F003F99C20E1F002FC879807F003F9969808F003F9939809DA
:2006C000F003F990980AF003F98D980AF003F98A980FF003F9879810F003F984980BF003A3
:2006E000F981980CF003F97E980DF003F97B980EF003F978980FF003F9759810F003F9724E
:200700009811F003F96F2021F002FC5A2029F002FC57B012BD8046C02000400AB580B086E4
:2007200048508800004148505A40F002FD13220092014B4EF000F8C346029801460B494C64
:20074000F000FF6EF001FDE49005A90320018008E7FFA8038800494788094288DA10E7FFAC
:20076000A8038800004249525A881E925A891A4049415288E7FF98031C40A9038008E7E856
:20078000483C88001E41A80280018801483AF000F95B460148398001990591008800F00282
:2007A000FAD146019800F001FCF5F002FA6F22004B33F000F884F002F9A79004483188001F
:2007C0002800D11BE7FF980421190109434148316001680049304288D304E7FF492D48318A
:2007E0006008E00A482B6800492C4288D804E7FF4928482B6008E7FFE7FFE01F48218800C3
:200800002801D11AE7FF980400C1481F60016800491E4288D304E7FF491B481D6008E00B47
:20082000481968000A00287CD805E7FF4916207D02006008E7FFE7FFE7FFE7FFF000FA583E
:20084000491920008008480F88002800D107E7FF490C200180084815F003F800E7FFB006E7
:20086000BD8046C027E6202027B8202000003FF012D0419327EA202021FC202027E42020EB
:2008800000003FE027E0202027C4202086A1000186A0000127C820201B0100B708FF003D32
:2008A0000900003D1B0000B727E22020A0004086224C2020B4FC240107E44063E002B4FCCE
:2008C000240107E4B408031D08ED0DD643350256005F0D7FD106002C4334D000E0AEB00110
:2008E000BCFC477008A443252407022434FF42A7D10520000D190509B001BCFC47702B0093
:20090000D50324001BA641AC0025030B08DB0DC24313024200480D40D107001C4314D000FE
:20092000E08CBC0E0010BCF047702401076443232407022434FF42A0D10520000D09050998
:20094000B001BCFC47702900D50324001AA2419C00231BC1D508001C002B0025001400322B
:20096000002624001A6100382936D525B40239394249000C3C20D203002F408F4337E001D8
:20098000003740A72F00D0012140430EBC022920D50B2900D00E424C3420B42040A5002CD2
:2009A000BC20410D40CE1936E0042900002E410D3920410E1992416B001C4314D03E240083
:2009C0002B00D504240121001A8A4199000B1E400052415BD5FB210102890015400DD00C3D
:2009E00018522700417BD3011C40E00B210701C90015400DD1010089438A21070209438A13
:200A00000052415B1C80DD192107020931FF4288D309BC0E20000FC9020931FF00C91DC9A1
:200A20000509BCF047700B190500430107E4432105180B124310B001BCFC4770210020009B
:200A4000B001BCFC47704770B580B08E900CA80B800188002800D104E7FFA90D20008008B3
:200A6000E0A3A80B900288000040F003F85D9A02900A980A990C88120052F003F86199024E
:200A8000980A88094B4B2202F000F9CE9802780007C02800D113E7FF990AA80B88022001E6
:200AA0009001438218881E8088005A891840F002F94999010789F001FB6D9009E009980A04
:200AC000A90B8809220143915A40F002FBD19009E7FF980A8800A9088008A9072001800847
:200AE000A90680089908AA058011A9048008E7FFA8048800A90B88094288DA3CE7FF980AE2
:200B0000A904880900495A40A90888094288D105E7FF98071C40A9078008E00A980AA90480
:200B2000880900495A40A9088008A90720018008E7FFA8078800A90688094288DC0EE7FFB8
:200B4000A8078800A90688094288D10EE7FFA8088800A90588094288DA07E7FF9807A90639
:200B600080089808A9058008E7FFE7FF98041C40A9048008E7BCA80688002802DB04E7FF56
:200B80009805A9038008E0099809213F0609F001F82CF002F94BA9038008E7FF980AF00094
:200BA000FF3D9803A90D8008E7FFA80D8800B00EBD8046C039F90000B58049412000800863
:200BC00049408008494080084940800849407008484088002800D104E7FF494020006008DD
:200BE000E009483C88002801D104E7FF493A20006008E7FFE7FFE7FF48338800F000FAD89A
:200C0000483378002801D10BE7FF483088000040493318401E8088001CC0492B8008E7FFFE
:200C2000E7FF482B78002801D0E6E7FF48278800280ADB03E7FFF7FFFD71E03F48208800BE
:200C40002803DB25E7FF482388002800D104E7FF492220006008E009481E88002801D104E5
:200C6000E7FF491D20006008E7FFE7FFF000F840491E20008008481788002800D107E7FFD0
:200C80004914200180084818F002FDE8E7FFE014F001FBE8480F88002800D104E7FF48114E
:200CA000F002FDDCE7FF480B88002801D104E7FF480DF002FDD3E7FFE7FFE7FFBD8046C0B8
:200CC00027E6202027E4202027E8202027EA202027EC202027E0202027C4202027C82020E8
:200CE000224C202080004086A000408627E22020B5B0B08A4842680049424288D30BE7FFA7
:200D0000483F680049404288D805E7FF483C680049416008E015483D6800493D4288D30BE0
:200D2000E7FF483A6800493B4288D805E7FF4837680049396008E003493720006008E7FF30
:200D4000E7FF4832680049324288D30BE7FF482F680049304288D805E7FF482C6800F00110
:200D6000FE6DE7FF4C2D9400206E90082146910622AA2357F001F98A990698084A20681214
:200D800025109502940123009307930023099309F000FB32990798089B094A1C6812950262
:200DA00094019100215AF000FB27980799089B094A1968129502940190004608F000FB1CAE
:200DC000481788002801D119E7FF481490049000202300C2200021BE910523F0F001F956C6
:200DE00098049905220192022220920190004A0D203F0143201EF001FA4DE7FFB00ABDB020
:200E000027C8202067E10035BC1F00BE27C4202079190000ADAF000127CC2020FFFF000042
:200E200027E0202070940000B5F0B091461E460C90094255920F9310950C0867D100E08B0B
:200E400094021E6346104378990918089006200093014639460791041E489003429FD267EA
:200E6000930A1E789705463E43569D09900E46029906461719A8460C9A10479046219B0F59
:200E80001C7A18ED2800D4F49708920B1C5090079F0A463A435A920D9E09980D18309A10E5
:200EA000479046211E7F9B0C18F62800DCF51C78990B4281D214463C980A1C41910D9A0F00
:200EC00043519B0E4353930E2A00D0111E52980E5C2B5C77542F54731C491C40900EE7F3A0
:200EE0009B0842BB460F46039E109A0FD1B6E01C99049A0B4291D00D980342A046239E1054
:200F00009A0F9F07D1AA98051E40435018289B0B4619E0061C619A0F980D435018309E10FA
:200F20009B0B90061C5F4623E795980B1E431C472B009C02D0061C5998099A0F4633F7FFE1
:200F4000FF739A0F98014287D206461043789909180991091BE4E770B011BDF0B580B08C99
:200F60002009F002FBAF200AF002FBAC20262107F002FAC420019009044148409006F002BC
:200F8000FB7D201421029101F002FAB899012015F002F9F2201921039108F002FAAF99086E
:200FA0002018F002FAAB99082017F002F9E598092300930293000402920520234619F0019E
:200FC000FFCF202BF002FB72202CF002FB6F202FF002FB6C2033F002FB6999029A059809C5
:200FE000910004C393032012F001FF3C99029B039A0591002016F001FF35203AF002FB5644
:201000002036F002FB532035F002FB509806491C9104F002FCAA99049806F002FB2F990583
:201020009806F002FA799806990902099107F002FA4998069907F002FA539808048148119A
:20104000900AF002FC92980A21110509F002FB76980A21470489F002FB119909980A03094C
:20106000F002FA5A980A2140910BF002FA2B980A990BF002FA35B00CBD8046C00000400AC4
:20108000400007002000400AB5B0B090461D460B9C14A90F8008A80E8003AB0D801AAA0C15
:2010A0008015AD0B802C240094099408881B880C1B1B9307881288031AD292068809910206
:2010C0008800900198072801DB03E7FF20019004E00E98072800D103E7FF20009004E006AD
:2010E000200043C09004980742409007E7FFE7FF98062801DB03E7FF20019003E00E9806EA
:201100002800D103E7FF20009003E006200043C09003980642409006E7FFE7FF98079906DE
:201120004288DD03E7FF98079005E00298069005E7FFA90A20008008E7FFA80A88009905D7
:201140001C494288DA32E7FFA8028800A9018809AA0B8812F001FF7A990798091840900916
:201160009906980818409008980999054288DD09E7FF990598091A409009990498021840AA
:201180009002E7FF980899054288DD09E7FF990598081A4090089903980118409001E7FFCF
:2011A000E7FF980A1C40A90A8008E7C6B010BDB0B083A9028008483F88002828DB04E7FFAC
:2011C000494220007008E072483B88002800D132E7FF9802A9018008E7FFA801880049371B
:2011E0004288DC27E7FFA8018800004148385A40217D00C94288D817E7FFA8018800004039
:20120000493318408840492F4288D30DE7FF98014928880A00534A2C52D088081C4080082F
:20122000492A20017008E042E7FF98011C40A9018008E7D2E037482088002801D132E7FFA1
:20124000980246698008E7FF46688800491B4288DC27E7FF46688800004148195A40217D7A
:2012600000C94288D817E7FF46688800004049141840884049134288D30DE7FF9800490D39
:20128000880A00534A1052D088081C408008490F20017008E00BE7FF98001C40466980088C
:2012A000E7D2E7FFE7FF490920007008E7FFB003477046C027EA202027E0202007FC0000CE
:2012C0001000202003E90000224C202027EC202000002020B580B08A2001F002F92B900952
:2012E000980990082801D004E7FF98082802D045E06C200102014839F002FAF72800D03CEB
:20130000E7FF2014F002FB12483590039000202300C22000900521BE910423F0F000FEB62F
:2013200098039904220192022220920190004A2D203F0143201EF000FFAD9805492A8008CD
:20134000482A90068801482A9007F002FA6F980688014828F002FA6A9807F002FA7FE7FFBB
:2013600020010201481DF002FAC02800D001E7FFE7F62014F002FADAE7FFE02848152140D6
:20138000F002FAB32800D020E7FF200AF002FACE48116801310A60016800285BD304E7FFC6
:2013A000490D200A6008E7FF480B6800F001FD8EE7FF48082140F002FA982800D001E7FF2E
:2013C000E7F7200AF002FAB2E7FFE7FFE7FFB00ABD8046C02000400A27C020200000400ADD
:2013E000FFFF00007085000027E0202027B8202080004086A0004086B5F0B0914614460D55
:201400004606981899179A16AF10803EAE0F8035940EAC0D7023AB0C801AAA0B8011A90A49
:201420007008AA072000701078090849AA067011A9097008E7FFA8097800A90D78094288A6
:20144000DA62E7FF980E9004990D980943C01840B2C1200A9005F001FDCB46019804F001CF
:20146000FBF59905F001FBF2A8087001A80778002800D12AE7FFA8097800A90D78091E49E8
:201480004288DA22E7FFA80878002800D118E7FF9810A909780AA906780943511840A90FD1
:2014A0008809AA0C8813AA0B8812AC0A78242500950294019200B2802220F7FEFF43E01E1D
:2014C000A90720017008E7FFE7FF9810A909780AA906780943511840A90F88099A083230B2
:2014E000AB0C881BAC0B8824AD0A782D2600960295019400B280B2D2F7FEFF24E7FF980996
:201500001C40A9097008E796B011BDF0B5FE2900D0054C3D27002C07D803463EE00327005D
:20152000E06F46263E08428ED36B97011E43220842184607D00046172807D80046171DC85C
:2015400090022507483168004780483178012900D10B21012C09D2012200E0034A2D230065
:20156000609360164B2C601A7001980243A890021E7842794C2868252D00D034462C340858
:201580001906400E42B4D010462A321046333B08429AD90119F6E7F9682A2301439A18A2A8
:2015A0009B0218F3429AD3E6E006682A2301439A9B02429ADBDF46264628F002F82B42A66B
:2015C000D0161B3038086829220143D340191A0960284018182F4311390860B937084628D2
:2015E000F001FE5AE005480D680047809F01E008462F46389902F000FFCD480868004780E8
:2016000037084638BDFE46C00400000027D4202027F0202022C8202022C4202027D8202027
:20162000B4FC000C405C0FE407E4B410031D0B2D0056416D005F0D7FD07324010564432530
:201640002407022434FF42A7D061030B0B1B0042415B00480D40D0642401056443232407F2
:20166000022434FF42A0D0521BC021002700243642ABD10042B2D304417F41491B9241AB24
:20168000E001417F41491E64D0062B00D1012A00D0020052415BE7EB2C20D2072C16D30ACA
:2016A000003940A726201B3640F1E00B3C20003940A12700E00640A126201B36003D40F5EA
:2016C000432940A7240105644221D102007F41491E4024001C7F4161240105A44221D00228
:2016E0001C4043A1E001086443A12403022434FF1900DD16192442A0D80907CC08490500C4
:20170000430108784320BC104321BCFC4770BC0220000FC9020921FF00C91DC90509BCFCAD
:20172000477021002000B001BCFC4770B5804935200080084934800849347008E7FF4831DD
:201740008800F7FFFD35483178002801D10BE7FF482D88000040492E18401E8088001CC0EF
:2017600049288008E7FFE7FF482878002801D0E6E7FF48258800280ADB03E7FFF7FEFFCE4A
:20178000E03F482488002803DB25E7FF482288002800D104E7FF492420006008E009481E0C
:2017A00088002801D104E7FF491E20006008E7FFE7FFF7FFFA9D491D200080084816880081
:2017C0002800D107E7FF4914200180084814F002F845E7FFE014F000FE45480F880028007E
:2017E000D104E7FF480DF002F839E7FF480A88002801D104E7FF480AF002F830E7FFE7FFDA
:20180000E7FFBD8027E8202027EA202027EC2020224C202027E6202027E02020800040862A
:20182000A000408627C4202027C8202027E22020B5F04A3918824B3918C04D3A794C790BB1
:201840002C00D0226F462B20D002240501E7E0004F35402E2B00D1002788433E67466F84E9
:20186000402C433C67846B444E2D403463446B84403463842400654465846854268F43F6A3
:2018800040346054689440346094680C79892B20D009460636702B00D1151E6460446EC4C7
:2018A000402C2788E0151E6460446EC4402C4E1E433466C46F04402C433467044D1B2401F9
:2018C00007674606E007270501FF086460446EC4402C433C66C46834402C433C60346AC49B
:2018E0004D0F402C62C46B04402C6304240064C465046FC4258F43ED402C67C46814402C6D
:201900006014431968024B0A401322BD400A18D11C896001BDF046C0188400001804000062
:201920008888FFFD4924003E04010000FFFFCFFF0040CFFFB5B04A361880684A6042780ABE
:201940002A22D8560093A40158E3469F19E9000019F3000019E9000019F3000019F300008D
:2019600019F3000019F3000019F3000019F3000019F3000019F3000019F3000019F3000007
:2019800019F3000019F3000019F3000019D9000019F3000019D9000019F3000019F300001B
:2019A00019F3000019F3000019F3000019F3000019F3000019F3000019F3000019F30000C7
:2019C00019F3000019F3000019F3000019D9000019F3000019D9000068032403072443A350
:2019E00024010764191BE00368032403072443A36003690B60C368CB6AC44D0640254C0638
:201A0000401C192B62C37A0943116001BDB046C0180400008888FFFD77770002B5F8280069
:201A2000D06746044833680047803C084E3222004631461568302701460243BA18B63608B2
:201A400042A1460AD3F44B2D4A2B2B07D901189A3A084296D900260042A1D14707C0D045F1
:201A60002D00D00A682940394628D00020002E00D1062900D12A2600E00B2E00D026200079
:201A8000783107C94631D00021002800D00B460E46054628F001FDBE2E00D108F002F814A4
:201AA00018803008E00F25002900462FD00E4630F001FDB02F00D00DF002F8066833400BD0
:201AC000188018C030106028462CE00C682021014388E0076820210143C940086832400A32
:201AE0001880300860204620F001FBD6480468004780BDF827D4202022C8202004000000D5
:201B000027D82020B5F0B08449304A31250103AC6816022B9303439E6016680E4226D10598
:201B2000680E4226D102680E4226D0F6026C7E46699743AF402E19BD619525205D4569D6CC
:201B4000270343BE403D197561D54D22682E270740372605602E6A46683362136873625366
:201B6000602F69C3065B0C5B69D5267F023643B518EB61D3C8E89700680797016847970202
:201B8000071B0B1B032DB2AD18ED07330D1B7A009E004335431D9B01431D9B02431D4305D6
:201BA00069904B0D4003480D402818C0619068109B034318601068084220D10568084220B0
:201BC000D10268084220D0F6B004BDF00204400B0108400B13004040008DFFF0FF72000F05
:201BE000B4FC270107FF4079E002B4FC270107FF020C004D0E2DD1032C00D152BCFC477066
:201C0000433C2DFFD05008A42900D5004264020200430E1BD1042A00D1430008BCFC4770AF
:201C2000433A2BFFD04108922800D50042521B5ED50400170022003C4276002B2E19D506F5
:201C40000027413719D2271C1BF7427F40BC2A00D027D50242522701E00027003B0100529F
:201C6000D5FC001526804035D00F001526204035432C3280D208001526404035432CD10485
:201C80002601023643B2E0001C5B00523302DD082BFFD20B0A5005DB431807FF4338BCFC58
:201CA00047702000BCFC477000080FC707FF20FF05C04338BCFC4770B580B08A9009200103
:201CC00090060681482A9007F001FE3B990698070609F001FE36A90820007008E7FFA80863
:201CE00078002817DC2DE7FFA809788006002800D506E7FF20010641481DF001FCFBE0050C
:201D000020010641481AF001FE1CE7FF98090040900920010681910448159003F001FCEA8A
:201D200020649005F001F86698039904F001FE099805F001F85FE7FF98081C40A90870081B
:201D4000E7CD20019000064148099001F001FDF99900980106099102F001FDF32064F001E4
:201D6000F84998019902F001FCC5B00ABD8046C00000400AB580B08A48229001F001FCAEF0
:201D800048219002F001FCAA48209003F001FD2A481F9004F001FD26481E9005F001FD2284
:201DA000481D9006F001FD7E481C9007F001FCF6200107809008F001FC5548199009F00171
:201DC000FC519801F001FC669802F001FC639803F001FCFC9804F001FCF99805F001FCF65A
:201DE0009806F001FD539807F001FCC09808F001FC2D9809F001FC2A2010F001FE9BB00AD2
:201E0000BD8046C00000400A2000400A2000408680004086A000408680004010A000404643
:201E200020004000B510B08A482290079000202300C292052100910423F04608F000F926F0
:201E40009B0498072401940221109106910190004A192014210FF000FA1D98049A05900006
:201E6000232D4619F7FFF910990698079402910190004A12201F02C39309203C9008214667
:201E8000F000FA089A06990798089B099402920191004A0B215AF000F9FD9A06990798087C
:201EA0009B099402920191004A06216EF000F9F2B00ABD10FFFF00006FFC000070DC0000CE
:201EC00070E3000070EA0000B580B084481F9002210091004A1EF001F97B990098024A1DDA
:201EE000F001F962990098022201920302D29201F001F80699009802F001F9F6980299030C
:201F00004A15F001F965980299034A14F001F94C9A0198029903F000FFF398029903F0016F
:201F2000F9E3480FF001FCA62011F001F8BB2004F001F8E4480BF001FC9D2014F001F8B269
:201F40002005F001F8DBB004BD8046C0A0004042128040000000202032804000100020202B
:201F600080004086A0004086B580B08A492148229009F000FE0B980922009208920192005E
:201F8000230193060459F000FC1599069B0898099304060991039302930193004619461A8E
:201FA000F000FC7A990698090409F001FA259809F001FA5E99069809F001F83299069809D9
:201FC0000209F001FA6398092102F001FB31980921209107F001FA3E99079809F001FA6494
:201FE00099082005F000F8949809F001FC73B00ABD8046C070C4000020004000B580B08A9E
:2020000049212001900607809009F000FDBF9B06980922009208920192000459F000FBCA9E
:2020200099069B0898099304060991039302930193004619461AF000FC2F990698090409A0
:20204000F001F9DA9809F001FA1399069809F000FFE7990698090209F001FA189906980979
:20206000F001FAE6980921209107F001F9F399079809F001FA1999082004F000F84998095C
:20208000F001FC28B00ABD8070CC0000B5B0B0884614460D46019A0CA8078001A906800D55
:2020A000AD05802CAC048023AB03801A880088099A051E529B041E5BB292B29BF000FB2843
:2020C0009806A9028008E7FFA8028800A90488094288DA1BE7FF9807A9018008E7FFA801D4
:2020E0008800A90588094288DA0AE7FFA8038800F001F9A0E7FF98011C40A9018008E7EEE6
:20210000E7FF98021C40A9028008E7DDB008BDB0B570B0824602A8017002910021005640C5
:202120002800D416E7FF2400A9015708220343D340184A1758805709078C0EE524FF40ACB9
:2021400043A09C0001A4B2E440AC432040195088E01AA9017808240F40203808220343D313
:2021600040184A0A588025005749078D0EEE25FF40B543A89D0001ADB2ED40B543284021D7
:20218000390840195088E7FFB002BD70ED1CE000E400E000B4FC270107FF0006404E0FF6E4
:2021A00007F6020200430E1BD02D433A2BFFD02D020C004D0E2DD026433C2DFFD0261B5B6E
:2021C000200021200864085242A2414042A2D3001B123901D0042A00D0010052D1F44088A7
:2021E0004238D10100403B013080D3013301E0000040337FDD072BFFD2080A4005DB431820
:202200004330BCFC47702000BCFC477020FF05C04330BCFC47704770B5F81C457800230027
:202220002B08D032782F07C2D10C786A240F40141CE42C12D10B2402572EB2F42E00D4083E
:202240001CEEE00E1C6D1C4A700F4611E01A1CAEE0081D2E78ED9500257F402C9D0001ED35
:20226000192C3412013D091219524D0942AAD00E43D22C00D0055C8D1C4F700D1E64463907
:20228000E7F7463508401C5BE7CA4628E7C5BDF80FFF0000B5F0B08D4614460D4606981411
:2022A00099139A12AF0C803EAE0B8035940AAC098023AB08801AAA077011A9067008E7FF5D
:2022C000980A78002800D020E7FFA80C90058800A90B88099A0A7812AB09881BAC088824EB
:2022E000AD079504782DAE067836960295019400F7FEF8289804990578000842980C18807B
:202300008008980A1C40900AE7DAB00DBDF04770B40C4B1B004A1AD2D21B0D00030A431005
:20232000220102121880D3020840031218890A402900D502220107D2431000490D49223869
:2023400001121A89D40C29FFD20D05C94308BC0C477043DB401A4302D00543D8BC0C47701C
:202360002000BC0C47700FC907C920FF05C04308BC0C477046C046C046C046C046C046C044
:202380000000FFE0B0859004202690009904205043489003481668009002E7FF4814680092
:2023A0009001980199024288D01FE7FF980199024288D207E7FF980299011A41980018407D
:2023C0009000E009480B680099011A4099021841980018409000E7FF98019002980099031C
:2023E0004288D301E7FFE001E7FFE7D7B0054770E018E000E014E000B580B08220009001A4
:20240000F000F92A200103814814F001F98B4814F000F950F7FEF8A020C89000F001FA8628
:20242000F7FFFD529800F001FA81F000FF839800F001FA7CF000FC689800F001FA77203242
:20244000F000FD2A9800F001FA71F001F8C79800F001FA6CF7FFFCE6E7FFE7FE0000400AE5
:2024600070A20000B580481488002803DC22E7FF491188081C408008481088002800D10972
:20248000E7FF480D88000041480D5A41480EF001F9CDE00E480988002801D109E7FF48063D
:2024A0008800004148065A414806F001F9BFE7FFE7FFE7FFBD8046C027E6202027E02020EA
:2024C00027B82020A000408680004086B5F04B16461D3D08682E240143A6602E681E2703A1
:2024E000033F43BE403818306018681826FF43B0B2C918406018682843206028681D2A0054
:20250000D00E480A022107224315601D6802420AD1056802420AD1026802420AD0F6BDF02C
:2025200007204385601DBDF00110400B0204400BB580B084491448159003F001F833980368
:202540004913F7FFF9759803230093024619461AF000FBBC9B029803930022104619F001B5
:20256000F94D9A0298034611F001F80E9A029803219FF001FA919803F001FA1698032101C4
:20258000F001FA26B004BD8070F000002000408670D40000B5F8460468022501461043A8E7
:2025A0001A402810D3211866380860B0360843A8183737084A0E480F2A07D90118103808EE
:2025C00091004287D20D783807C0D10A4638F001F821683043E94008683A400A1880300820
:2025E00060304630F000FE589A00432A6022BDF80400000022C82020B580B082200090010B
:20260000F001F8D8200190000240F000FEC59801F000FF9EF001FA28F001F9B29A002003C1
:202620000300210AF7FFFF52480AF7FFFA6B2010F000FF9CF001F9AEF001FA1E9801F00093
:20264000FEBB9801F000F9B698009901F7FFFD60B002BD806FD40000B580F7FFFB8BF7FE2C
:20266000FC7DF7FFFFC9F7FFFF63F000FA2BF000FA07F000FACBF000FAA9F7FFFCBFF7FFD6
:20268000FC73F001FA45F001FA0F490622B8200054884905229C54884904548849042224D8
:2026A0005488BD8020002020215C202020BC2020229C2020B083B51EAC05C40E9001480F59
:2026C000680047804A0E69901C40D00DA9059102480C900032184B0CA801F7FDFCF14604A7
:2026E000480A68004780E004480868004780200043C44620BC1EBC02B003470827D4202094
:2027000026C820203B5100003B49000027D82020B510B086AC058020A80490008001A80388
:202720008002A80290018003202AF000FC4998053014B280F000FE7E98033014B280F0005A
:20274000FE79202BF000FC3C98008800F000FE7298018800F000FE6E202CF000FC31B00673
:20276000BD100000B580B084900391029803F001F9C146698008A90120008008E7FFA8019F
:202780008800466988094288DA0DE7FF9803A90188095C414806F000FE1FE7FF98011C4031
:2027A000A9018008E7EB46688800B004BD8046C080004010B510B0849C079C0690039102B4
:2027C000920193009803490A184099029A0143119A0043114A07F000FCD3980349061840C3
:2027E00099069A0743114A05F000FCCAB004BD1011040000000100131108000000071F1F38
:20280000B5F0B081460668536894899589D0900069176950431C432C433C9B00431801005B
:202820004320010B18F3240902645118781078520089187143024804580B24BF43A340229F
:20284000189A500AB001BDF011100000B580B0849003910292019803490B184099024A0B94
:20286000F000FC8E9803490A18409901223FF000FC8799034A071888588922014011F00058
:20288000FC7FB004BD8046C011100000FFFF00001114000011040000B510B0859200460299
:2028A00098009C0B9C0A9C099C089C079204AA0370119002930198029901430899074308F3
:2028C0009908430899094308990A4308990B43089904781200921889222301D25088B00543
:2028E000BD100000B5702211021318C258C4250143AC50C4880C788D4325888C432C58C5DE
:202900004E08402E4D084025197450C4798879CB43037A0843186851237E43994018180882
:202920006050BD7098E7FFFD67180000B580480DF001F86C2806D112E7FF480BF000FF9A0E
:20294000480A88002800D106E7FF490820018008F7FEF932E002F7FEFEE9E7FFE000E7FF34
:20296000BD8046C020004000A000408627E22020B5702211021318C2890C884D4325798CE7
:20298000432C58C54E09402E4D094025197450C4888879CB4303780843186851235D009B41
:2029A0004399401818086050BD7046C0CC80FFFF337F0000B510490E4A0E2301055C6090FB
:2029C00068084220D10568084220D10268084220D0F66810041B43036013680806C0D405B3
:2029E000680806C0D402680806C0D5F6BD1046C00204400B0104400BB580B082A9019100B4
:202A0000700820010501480BF000FFA5980078014809F000FF75E7FF4807F000FEB328006C
:202A2000D001E7FFE7F8200105014802F000FE6EB002BD802000400AA0004046B580B08649
:202A400090059905480CF000F9011E409004203290039904980343482164F000F8F7900275
:202A6000990448069001F000FED5980199022200F001F812B006BD80B40004C42000408671
:202A8000B580B082490C480D9000F000FD8B9800490BF7FEFF4F9800F000FF869800210028
:202AA00091012201F000FBBC980099012202F000F985B002BD8046C070F30000A000408638
:202AC000704C0000B580B084490C480D9001F000FD699801490BF7FEFF2D9801F000FF6446
:202AE00098012100910222019203F000FB99980199029A03F000F962B004BD8070F60000DA
:202B00008000408670600000B40C2900D416004A0D522303021B33FF1AD2D30F231F1A9AEA
:202B2000D30F02C9230107DB431940D12A0BD202321540D043010008BC0C47702000BC0C62
:202B4000477020001E40BC0C47700000B58020010780F000FF5B2806D112E7FF4809F00062
:202B6000FE89480988002800D106E7FF490620018008F7FEF821E002F7FEFDD8E7FFE00098
:202B8000E7FFBD808000408627E22020B5F02211021318C2780C4D0B59464F0B4037260347
:202BA000402619BC26A9063619A45144684C58C52607063643B54034192C50C4784861104D
:202BC000BDF046C008080000FFFC00FFB580B082490B480C9001F000FF229801490AF7FFA5
:202BE000FEC798012100F000FB93980121102202F000F9CE9801F000FDADB002BD8046C00B
:202C000070F90000A000404670B00000B580B082490B480C9001F000FF0B9801490AF7FF89
:202C2000FE6198012100F000FBF6980121410089221BF7FFFE0B9801F000FE6DB002BD80F7
:202C400070FB00008000401070BA0000B51C000AD0172300240107E442A0D200000442948C
:202C6000D9010052E7FB4290415B4290D3001A804291D2010852E7F6001900020008001188
:202C8000BD1C00012000F7FFFAC6BD1CB40800430E1BD00F2BFFD011210701C9185B0FC164
:202CA00002C9430B0001074802490B09051B4319BC08477021002000BC0847700001024056
:202CC0000DC900C91DC90509BC084770B510B0869301460B460198019105A904800BAB03AA
:202CE000801AAA02801098054C0519008809881B4319881243114A03F000FA42B006BD107D
:202D000018040000FF800000B580B082200190000681480A9001F000FE1499009801064913
:202D2000F000FE0F990098010609F000FE0A48046800F7FEFFC1B002BD8046C00000400AB5
:202D400027D02020B406229E2800D402D104BC0647704241D404E00000013A010049D5FCE5
:202D60003180D3013201E00000490A4905D243112800D502220107D243110008BC06477024
:202D8000B570480A4C0A4284D00C4D0A4E0A42B5D008682A68691C507812009258A247908A
:202DA0003508E7F4BF00BF00BD7046C0714C0000714000007154000071640000B08692007A
:202DC000460A99009201460298019205AA047010A803700199054B0618C991027800210FAA
:202DE00040089902781200925088B006477046C004440000B083900298029001E7FF9801D2
:202E00002800D011E7FF200A9000E7FF98002800D005E7FFE7FF98001E409000E7F6E7FF79
:202E200098011E409001E7EAB0034770B50600410E09397FD40D221F1A51D90C46860200C4
:202E4000220107D2431040C846722A00D5004240BD062000BD060002200107C02A00D40054
:202E60001E40BD06B510B0849C0690039102920193009802990143089900430899064308FD
:202E800049034308990300894A025088B004BD100081000480044042B580B0844601A803EB
:202EA0008001210091019102880002001C40900248056800F7FEFF009801F7FEFEFD980207
:202EC000F7FEFEFAB004BD8027DC2020B580B0849003480A9000F000FD71900299029803CD
:202EE00043482164F7FFFEB246019800910199012200F000FDD1B004BD8046C02000408654
:202F0000B0859200460A99009201460298019204AA037010A80280018800990478120112DD
:202F200018894A025088B005477046C0120C0000B0859200460A9900920146029801920482
:202F4000AA037010A8028001880099047812011218894A025088B005477046C0120C000002
:202F6000B510B0849C06900391029201930098029901430899004308990643082181430830
:202F8000990300894A015088B004BD1080044042B580B0849200460A460198009103A902F9
:202FA000700AAA01701098034B0418C0780978124311223FF000F8E4B004BD80110C000010
:202FC000B580B084A90391007008200104C1910248069001F000FCBF98007800F7FFFD0CC1
:202FE00098019902F000FB92B004BD802000400AB083AA027010A801700120019000E7FFB5
:20300000AA0178101E4170112800D006E7FFA8027800990043489000E7F29800B003477008
:20302000B580B0849101460198019103A902700898034A051880780902C9221F02D2F0002B
:20304000F89FB004BD8046C011080000B580B084460BA9038008A8028003AB019300801AD5
:20306000880A880346104619F7FFFB5298008800F000F9E0B004BD80B580B0822001028255
:203080004806900021009101F7FFFF52980099014A03F7FFFBB5B002BD8046C0A00040421C
:2030A000701C0000B081460146687001210056402800D409E7FF46687801201F4001200183
:2030C000408849026008E7FFB0014770E280E000B081460146687001210056402800D40992
:2030E000E7FF46687801201F40012001408849026008E7FFB0014770E280E000B08146019F
:2031000046687001210056402800D409E7FF46687801201F40012001408849026008E7FFC5
:20312000B0014770E100E000B081460146687001210056402800D409E7FF46687801201FC7
:2031400040012001408849026008E7FFB0014770E100E000B40422042800D1022100BC04C9
:203160004770D501320842400212321F00011E520049D3FC05080B0905124311BC04477015
:20318000B0849003910292019803680090009800990143889000980099029A0140114308B8
:2031A00099036008B0044770B0849200460298009203AA02701190019801990378120112D5
:2031C00018894A025088B004477046C012080000B0849200460298009203AA0270119001A6
:2031E000980199037812011218894A025088B004477046C012040000B0819000490520047E
:20320000600898001E4049046008490420006008B0014770E010E000E014E000E018E000E2
:20322000B0849003A8027001920199034A05188991009B01990078000082588843185088BA
:20324000B004477010580000B580B08221019101028A48059000F7FFFE6B980099014A0339
:20326000F7FFFACEB002BD80A000404270340000B402219E2800D405D101BC0247703901E4
:203280000040D5FC3080D3013101E00000400A4005C94308BC024770B5B0680122014391AA
:2032A0004B06681C2C00D00668254395428DD20234084623E7F560846018BDB022C42020BF
:2032C0004808F3808808BF00BF00F000FC832800D001F7FFFD552000F7FFF88E2001F000C0
:2032E000FC7B46C080002020B0839100460198009102A90170089802780901091841200992
:2033000002425888230243185088B00347700000B580B08290019100980149041840990067
:203320004A03F7FFFF2DB002BD8046C01108000003FF0000B580B08220019001F7FFFEC839
:203340009801F7FFFEF19801F7FFFEC29801F7FFFEEBB002BD80B5B0460420002B00D00867
:20336000B2D2780D70254295D0041C641C491E5BD1F7BDB01C60BDB0B0829001910098009C
:2033800049034308990100894A025088B00247700080000480044042B580B0824601A80105
:2033A00080018801200F02024802F7FFFEE9B002BD8046C00104400BB580B0824601A8010D
:2033C00080018801200102424802F7FFFED9B002BD8046C00138400B4A0618806802061284
:2033E000D50568020612D50268020612D4F66181477046C011080000B580B082900191000D
:203400009801211102091840990022010412F7FFFEB7B002BD80B580B082900191009801F0
:203420002111020918409900220303D2F7FFFEA8B002BD80B580B0824601A8019000800171
:203440007840F7FFFAD998007800F7FFFAD5B002BD800000B082900191009B0099014A0351
:20346000588843185088B002477046C010480000B081900099004A0458882301021B43184E
:203480005088B001477046C011080000B082900191009B0099014A03588843185088B00232
:2034A000477046C010880000B082900191009B0099014A03588843185088B002477046C05F
:2034C00010280000B082900191009B0099014A03588843185088B002477046C01048000004
:2034E000B082900191009B0099014A03588843185088B002477046C010280000B082900179
:203500009100980021804308990100894A015088B002477080044042B082900191009B00F2
:2035200099014A03588843185088B002477046C013900000B081460146687001780120301F
:20354000434849025840B001477046C011004040B580B0824601A80170017801480222034E
:20356000F7FFFE0EB002BD800100400BB580B0824601A8017001780148022230F7FFFE003D
:20358000B002BD800104400BB510009218804A045883240704A443A3402118595081BD10AB
:2035A00018300000B510220103121883780C609C784B508378894A015081BD10110C00000E
:2035C000B08290014668700178002103400899014A015088B002477010180000B580B08270
:2035E000480490012100F7FFFFEB9801F000F92AB002BD8020004086B580B08290019100E3
:20360000A80178014802F7FFFEE79801B002BD80800040104A0568132B00D0064611461A89
:2036200032084283D1F768806008477022C42020B0829001466870017800210F400899012A
:20364000220102925088B00247700000B08190009900200102C248025088B001477046C0A3
:2036600000012600B081900099004A0248025088B0014770080400000003B100B082900170
:203680009100980099014A025088B002477046C012D00000B08190009900200102C2480269
:2036A0005088B001477046C000012600B0819000980000814A0220815088B001477046C090
:2036C00080044042B0819000980000814A0220005088B001477046C080044042B081900091
:2036E00099004A0248025088B0014770080400000003B100B08290019100980099014A02C9
:203700005088B002477046C012900000B08290019100980099014A025088B002477046C0A7
:2037200012900000B08290019100980099014A025088B002477046C012900000B082900169
:203740009100980099014A025088B002477046C012900000B081900099004A0358882301C6
:2037600043185088B001477011040000B08190009900200102C248025088B001477046C0CA
:2037800000012600B0819000980049035840211040080900B001477011100000B0819000F9
:2037A00099004A0248025088B0014770080400000003B100B0814601466870017800490280
:2037C0006008B001477046C00308400BB08190009900200102C248025088B001477046C0EE
:2037E00000012600B081900099004A0248025088B0014770080400000003B100B5109C024F
:2038000000A41900431143194A015081BD1046C018500000B08290019100980099014A0212
:203820005088B002477046C018080000B08290019100980099014A025088B002477046C008
:2038400018080000B081900099004A035888230143185088B001477018040000B081900025
:2038600099004A035888230143185088B001477018040000B081900099004A0358882301FC
:2038800043985088B001477018040000B08190009900200102C248025088B001477046C022
:2038A00000012600B081900099004A0248025088B0014770080400000003B100B580B0828A
:2038C0009001990148024348F000F934B002BD8038800001B08190009900201102025888B4
:2038E000230143185088B0014770B082900191009801212701C9584099004008B002477028
:20390000B08290014668700178009901224501925088B0024770B0819000990020110202E9
:203920005888230143185088B0014770B580B08290019901207D00C04348F7FEFD23B002A7
:20394000BD80B0829001910098009901229501525088B0024770B0829001910098009901D3
:20396000229501525088B0024770B0829001910098009901229501525088B002477000002B
:20398000490368082201021243906008477046C00108400B49036808220103124310600839
:2039A000477046C00104400BB081900099004A0220015088B001477011080000B081900019
:2039C000980049025840B001477046C018080000B082900191009800990122110212508839
:2039E000B0024770B580B0824601A80170017800F7FFF802B002BD80B08290019100980152
:203A00008800990088091A40B0024770B08190009800218101495840B2C0B0014770B510B5
:203A2000220103121883780C605C78495081BD10B510220103121883780C609C784950816A
:203A4000BD10B5102300429AD0035CCC54C41C5BE7F9BD10B580460B210358421DC146181E
:203A6000F000F86EBD8000004902680822014390600847700108400B49026808221043104F
:203A800060084770013C400B490268082205431060084770E010E000009218804A01508115
:203AA000477046C018100000B580207D0200F7FFFBA3F7FFFFE9BD80B580460A210358415C
:203AC0004610F000F82BBD806828210143C940086822400A47700000460B4611461AB58072
:203AE000F000F80FBD8021005C421C492A00D1FB1E48477021005C421C492A00D1FB1E48DB
:203B000047702300429AD00254C11C5BE7FA4770B580F7FFFAB1F7FFFB97BD80460A2100ED
:203B2000B580F7FFFFEEBD80B58046012008F7FDFCEDBD801E811F09BF00D2FC4770000067
:203B4000B580F7FFFF7EBD80B580F7FFFD55BD80B580F7FEFE07BD80BE004770BE00477070
:203B6000BE004770BE004770BE004770BE004770BE004770BE004770BE004770BE0047709D
:203B8000BE004770E0004770B08294004C019401BD10BF0032C10000BE004770BE00477008
:203BA000BE004770BE004770BE004770BE004770BE004770BE004770BE004770BE0047705D
:203BC000BE004770BE004770BE004770BE004770BE00477020014770BF00E7FE0000000020
:203BE0000000000000000000000000000000000000000000000000000000000000000000C5
:203C00000000000000000000000000000000000000000000000000000000000000000000A4
:203C20000000000000000000000001C001C001C001C001C001C001C000800080008000803D
:203C40000080008000800000000000000000018003C003C00180000000000000000000005C
:203C60000000000000001CE01CE01EF00E70073803180108008400000000000000000000D9
:203C8000000000000000000000000000000000000000000000000000000000000000000024
:203CA000000000000000000000000000102010201020102010207FFE7FFE081008100810D2
:203CC00008100810081008107FFE7FFE04080408040804080408000000000000000000004E
:203CE00000000000000000000100010007C0196031103118391839180138017001E003C008
:203D000007800F001D0039003100311C311C310C110C0D1807E00100010001000000000083
:203D2000000000000000000000000000101C183608630C63046304630263026301631D36E0
:203D4000379C2280638063406340632063206330221036181C080000000000000000000088
:203D600000000000000000000000000000F00198018C018C018C018C008C00CC00783E1860
:203D8000081C083608320463046304C303C343834306268E1C7800000000000000000000D5
:203DA000000000000000001C003C003C003000300010000C000600000000000000000000ED
:203DC0000000000000000000000000000000000000000000000000000000000000000000E3
:203DE00000000000000040002000100008000C0004000600030003000300018001800180A9
:203E000001800180018001800180030003000300060006000C000800100020004000000084
:203E2000000000000000000200040008001000300020006000C000C000C0018001800180F1
:203E40000180018001800180018000C000C000C0006000600030001000080004000200008F
:203E6000000000000000000000000000000000000100038003800100711C793C3D7807C07C
:203E8000010007C03D78793C711C01000380038001800000000000000000000000000000DB
:203EA0000000000000000000000000000000000000000100010001000100010001000100FB
:203EC0007FFC01000100010001000100010001000000000000000000000000000000000060
:203EE0000000000000000000000000000000000000000000000000000000000000000000C2
:203F000000000000000000000000000000000000001C003C003C003000300010000C00068B
:203F2000000000000000000000000000000000000000000000000000000000000000000081
:203F40007FFE000000000000000000000000000000000000000000000000000000000000E4
:203F6000000000000000000000000000000000000000000000000000000000000000000041
:203F800000000000000000000000000000000018003C003C00180000000000000000000079
:203FA00000000000000040006000200030001000180008000C0004000600020003000100C5
:203FC0000180008000C00040006000200030001000180008000C00040006000200000000E8
:203FE00000000000000000000000000007C00C601830301830182018600C600C600C600CCE
:20400000600C600C600C600C600C20183018301818300C6007C00000000000000000000041
:204020000000000000000000000000000100018001F801800180018001800180018001807E
:2040400001800180018001800180018001800180018003C01FF800000000000000000000FD
:2040600000000000000000000000000007E01C10180830043004300C300C300018000800DD
:204080000400020001000080004020202010200830041FFC1FFC0000000000000000000057
:2040A00000000000000000000000000003E00E180C0C180C180C180C18000C00060003C086
:2040C0000E001800100030003000300C300C100C180C0C1803E0000000000000000000008B
:2040E0000000000000000000000000000C000E000E000F000E800E800E400E600E200E1065
:204100000E100E080E040E047FFE0E000E000E000E000E000E007FC0000000000000000037
:204120000000000000000000000000003FF03FF00010001000100008000807C80C281818AE
:2041400010083000300030003000300C300C180418040C0803F000000000000000000000D0
:204160000000000000000000000000000F8010C030203010001800180008000C0F8C186CED
:20418000303C601C600C600C600C600C601820183030186007C00000000000000000000038
:2041A0000000000000000000000000003FF83FF8101C080C08040404040002000200010034
:2041C0000100010000800080008000C000C000C000C000C000C000000000000000000000DD
:2041E00000000000000000000000000007E00C301818300C300C300C301C1838087007E0BD
:2042000007B00E181C0C38063006300630063006180C0C1803E00000000000000000000058
:2042200000000000000000000000000003E00418080C180C1006300630063006300638061B
:204240003C0C361831F030001800180018000C0C060C030C01F00000000000000000000005
:204260000000000000000000000000000000000000000000000000000000018003C003C037
:204280000180000000000000000000000000018003C003C001800000000000000000000015
:2042A000000000000000000000000000000000000000000000000000000000C000C000007E
:2042C00000000000000000000000000000000000000000C000C000800080004000400000DE
:2042E00000000000000000000000200010000800040006000300018000C000600030001890
:20430000000C00180030006000C00180030006000400080010002000000000000000000063
:2043200000000000000000000000000000000000000000000000000000007FFE0000000000
:204340000000000000007FFE000000000000000000000000000000000000000000000000E0
:20436000000000000000000000000004000800100020006000C00180030006000C00180033
:20438000300018000C0006000300018000C0006000200010000800040000000000000000E3
:2043A0000000000000000000000007C0183030086008600C601C601C601C30001C0006001C
:2043C0000100008000800080008000000000018003C003C001800000000000000000000054
:2043E00000000000000000000000000007C01860301020182F0C4D8C4C864CC64CC64C664A
:20440000446644662666266615661CCC400C20083018183007C00000000000000000000002
:2044200000000000000000000000010001C001C001C00140036003200320032006300610DF
:20444000061006100FF80C080C080C080C0C1804180418067C1F00000000000000000000E4
:2044600000000000000000000000000007FE1C183818301830183018301818180C1807F840
:2044800018183018201860186018601860186018301818180FFE000000000000000000008F
:2044A00000000000000000000000000027C0386030102018400C400C000400060006000657
:2044C00000060006000600060006400C400C200C3018183007C000000000000000000000A3
:2044E00000000000000000000000000003FE0E1818183018301830186018601860186018AD
:204500006018601860186018601830183018101818180E1803FE0000000000000000000034
:204520000000000000000000000000003FFE30182018601840180018081808180C180FF86B
:204540000C180818081800180018001840184018201830183FFE0000000000000000000042
:204560000000000000000000000000007FFE70184018C018801800181018101818181FF8BF
:204580001818101810180018001800180018001800180018007E0000000000000000000075
:2045A00000000000000000000000000013C01C7010101018200C200C0004000600060006E6
:2045C00000060006FC0630063006300C300C30183018083007C0000000000000000000005A
:2045E0000000000000000000000000007E3F180C180C180C180C180C180C180C180C180CBA
:204600001FFC180C180C180C180C180C180C180C180C180C7E3F000000000000000000007E
:204620000000000000000000000000001FF8018001800180018001800180018001800180DA
:2046400001800180018001800180018001800180018001801FF80000000000000000000039
:204660000000000000000000000000007FE0060006000600060006000600060006000600A5
:20468000060006000600060006000600060006000600060006000600060E030E018E00FC22
:2046A0000000000000000000000000007C7E1818081804180618021801180198019801D838
:2046C00003B80338071806180E180C181C18181830183018FC7E00000000000000000000EF
:2046E000000000000000000000000000007E00180018001800180018001800180018001864
:2047000000180018001800180018001840184018201830183FFE000000000000000000009C
:20472000000000000000000000000000F81F381C381C381C3C1C34343434343436343274C6
:20474000326432643264316431C431C431C430C430C43084FC9F00000000000000000000EC
:204760000000000000000000000000007C1F101C103C103410341074106410E410C411C409
:20478000118413841304170416041E041C041C041C041804181F00000000000000000000CC
:2047A00000000000000000000000000003C00C3018181008300C300C6006600660066006A2
:2047C00060066006600660066006200C300C100818180C3003C0000000000000000000002C
:2047E0000000000000000000000000000FFE18183018601860186018601860183018181864
:204800000FF8001800180018001800180018001800180018007E000000000000000000003B
:2048200000000000000000000000000003C00C301818100C300C200C60066006600660062D
:204840006006600660066006600661E4332C321C16180E3007C04C007C0038000000000035
:2048600000000000000000000000000007FE1C183818301830183018301818180C1807F83C
:20488000039803180718061806180E180C180C181C181818787E000000000000000000003F
:2048A00000000000000000000000000027E038303018200C200C000C000C0018007803E05E
:2048C0000F801E00380070006000600460046008301818380FC80000000000000000000084
:2048E0000000000000000000000000003FFC218C61844182418201800180018001800180E0
:20490000018001800180018001800180018001800180018007E000000000000000000000A6
:204920000000000000000000000000007C3F100C100C100C100C100C100C100C100C100CC0
:20494000100C100C100C100C100C100C100C100C0808043803E00000000000000000000048
:20496000000000000000000000000000F83E20182018201810301030103010300860086089
:2049800008600CE004C004C004C00380038003800380010001000000000000000000000069
:2049A000000000000000000000000000F3DF618621862186218C210C238C138C138C138C8A
:2049C000134C125816580E580E380E380E380C3004100410041000000000000000000000F0
:2049E0000000000000000000000000003E7E08180838043004300270026001E001C001C0FC
:204A00000180038003400740062006200C100C10180818087C3E000000000000000000008A
:204A20000000000000000000000000007C7E101C1018081808300C3004700460026002C098
:204A400002C001C00180018001800180018001800180018007E000000000000000000000E4
:204A60000000000000000000000000003FF8181818080C040E040600070003000380018079
:204A800001C000C000E000600070003020382018101C180C1FFE00000000000000000000B8
:204AA0000000000000003FC0004000400040004000400040004000400040004000400040F7
:204AC00000400040004000400040004000400040004000400040004000403FC00000000097
:204AE0000000000000000000000000080018001800100030002000600060004000C00080DE
:204B0000018001800100030002000600060004000C000800180018001000300020000000D9
:204B200000000000000003FC0200020002000200020002000200020002000200020002005E
:204B4000020002000200020002000200020002000200020002000200020003FC000000003C
:204B6000000000000000078006C008201010000000000000000000000000000000000000A0
:204B8000000000000000000000000000000000000000000000000000000000000000000015
:204BA0000000000000000000000000000000000000000000000000000000000000000000F5
:204BC000000000000000000000000000000000000000000000000000000000000000FFFFD7
:204BE000000000000000007800C0010000000000000000000000000000000000000000007C
:204C0000000000000000000000000000000000000000000000000000000000000000000094
:204C2000000000000000000000000000000000000000000000000000000003F006180C0C4B
:204C40000C0C0C000F800C700C1C0C0C0C060C064C064F0C38F800000000000000000000E4
:204C6000000000000000000000000010001E0018001800180018001800180F1818D83038F7
:204C8000603860186018601860186018601820183038187807C800000000000000000000AD
:204CA000000000000000000000000000000000000000000000000000000007C00C70181881
:204CC0001818180C000C000C000C000C200C20181018083007C000000000000000000000C5
:204CE0000000000000000000000010001E001800180018001800180018001BE01C3018187F
:204D00001818180C180C180C180C180C180C18081C187A3009E000000000000000000000A4
:204D2000000000000000000000000000000000000000000000000000000007C00C30181840
:204D40001008300C300C3FFC000C000C000C20181018187007C000000000000000000000B5
:204D60000000000000000000000000003E00C380C080C0C000C000C000C01FFC00C000C017
:204D800000C000C000C000C000C000C000C000C000C000C00FF8000000000000000000008C
:204DA000000000000000000000000000000000000000000000000000000077C06C301810F8
:204DC00018181818181818100C3007F0001800180FF03FF07008600C600C600C38380FE06F
:204DE000000000000000000000000010001E0018001800180018001800180F9818D83038F6
:204E00003018301830183018301830183018301830183018FC7E0000000000000000000048
:204E2000000000000000000000000000038003800380000000000000010001F801800180ED
:204E400001800180018001800180018001800180018001801FF80000000000000000000031
:204E600000000000000000000000000038003800380000000000000010001F8018001800AB
:204E800018001800180018001800180018001800180018001800180018000C18061803F0A5
:204EA000000000000000000000000010001E0018001800180018001800183E180C1806189C
:204EC00003180118019801D80338071806180C181C1818187C7E0000000000000000000032
:204EE00000000000000000000000010001F80180018001800180018001800180018001802F
:204F000001800180018001800180018001800180018001801FF80000000000000000000070
:204F200000000000000000000000000000000000000000000000000000081CEE339C318CD3
:204F4000318C318C318C318C318C318C318C318C318C318C7BDE0000000000000000000096
:204F600000000000000000000000000000000000000000000000000000100F1E18D830389C
:204F80003018301830183018301830183018301830183018FC7E00000000000000000000C7
:204FA000000000000000000000000000000000000000000000000000000007C01C7030105E
:204FC0003018600C600C600C600C600C600C30183018183007C00000000000000000000062
:204FE00000000000000000000000000000000000000000000000000000100F9E185830381C
:20500000201860186018601860186018601830183038187807980018001800180018007ECB
:20502000000000000000000000000000000000000000000000000000000023C03C303818D1
:205040003018300C300C300C300C300C300C300838183C3033E03000300030003000FC00DD
:2050600000000000000000000000000000000000000000000000000000603C7E666061608F
:2050800000E000E00060006000600060006000600060006007FE000000000000000000004B
:2050A000000000000000000000000000000000000000000000000000000027E03830301839
:2050C00020180018007003E00F801C0030043004300C181C0FEC00000000000000000000AF
:2050E0000000000000000000000000000000000000800080008000C000E01FFC00C000C0F5
:2051000000C000C000C000C000C000C000C020C020C011800F0000000000000000000000EF
:2051200000000000000000000000000000000000000000000000000020103C1E3018301855
:20514000301830183018301830183018301830183818F43013E000000000000000000000A8
:2051600000000000000000000000000000000000000000000000000000003C7E1818081825
:2051800008380430043002700260026001E001C001C000C00080000000000000000000008E
:2051A0000000000000000000000000000000000000000000000000000000F7DF638E230CF9
:2051C000238C238C13981398165816580E700E700E7004200420000000000000000000007D
:2051E00000000000000000000000000000000000000000000000000000003EFC0870047089
:2052000004E002C001C003800380074006600C200C1018187E3E0000000000000000000040
:2052200000000000000000000000000000000000000000000000000000007C7E1818081824
:205240000830083004300460046002C002C002C0018001800180008000800080004C003C11
:2052600000000000000000000000000000000000000000000000000000001FFC0C0C0E04E9
:20528000060403000380018000C000E0207020303038181C1FFC00000000000000000000C6
:2052A00000000000000030000800040004000400040004000400040004000400040002008C
:2052C0000180020004000400040004000400040004000400040004000400080030000000E7
:2052E00001000100010001000100010001000100010001000100010001000100010001009E
:2053000001000100010001000100010001000100010001000100010001000100010001007D
:20532000000000000000000C001000200020002000200020002000200020002000200040D1
:2053400001800040002000200020002000200020002000200020002000200010000C000010
:205360000000003800C44086610222001C00000000000000000000000000000000000000CA
:2053800000000000000000000000000000000000000000000000000000000000000000000D
:2053A0000000000000000000000000000000000000000000000000000000000000000000ED
:2053C00000000000000000000000000000000000000000000000000000600060006000604D
:2053E0000060006000600040002000200020000000000000006000600060000000000000CD
:20540000000000000660066003300198008800440000000000000000000000000000000028
:20542000000000000000000000000000000000000000000000000000021002100210021024
:2054400007FE07FE0208010801080108010807FE07FE0104010401040104000000000000F6
:205460000000000000000040004001F00358034C03CC004C0058007000E001C001C0034089
:20548000034C035C034C014800F00040004000000000000000000000010E010A009100911A
:2054A000009100510051003A03AE02A0045004500448044804480284038400000000000093
:2054C00000000000000000000038006C006C006C006C006C002C0798011C011A013301330D
:2054E000016300E308C309C6073C00000000000000000000000C001C001000100008000434
:2055000000000000000000000000000000000000000000000000000000000000000000008B
:20552000000000000400020001000080008000400040002000200020002000200020002004
:20554000004000400080008001000200040000000000000000020004000800100010002076
:205560000020004000400040004000400040004000200020001000100008000400020000DD
:20558000000000000000000000000000004000C000400C460F4E01D001F00F5E0C4600405B
:2055A00000400040000000000000000000000000000000000000000000000000000000402B
:2055C00000400040004000400FFE004000400040004000400000000000000000000000007E
:2055E0000000000000000000000000000000000000000000000000000000000000000000AB
:2056000000000000000C001C00100010000800040000000000000000000000000000000036
:20562000000000000000000007FE0000000000000000000000000000000000000000000065
:2056400000000000000000000000000000000000000000000000000000000000000000004A
:2056600000000000001C001C001C00000000000000000000040006000200030001000100C5
:2056800000800080004000400060002000200010001000080008000C0004000600020000A2
:2056A0000000000000000000000000F00198030C030C0606060606060606060606060606EF
:2056C0000606030C030C019800F0000000000000000000000000000000000040007C0060FB
:2056E00000600060006000600060006000600060006000600060006003FC0000000000002B
:205700000000000000000000000000F8018403020306030603000100018000C00060002030
:20572000001002080204020603FE00000000000000000000000000000000007800C601867B
:2057400001860180018000C00070018001000300030003060306018600F800000000000077
:20576000000000000000000000000180018001C001A001A0019001880188018401820FFE6C
:20578000018001800180018007E00000000000000000000000000000000003FC0004000417
:2057A00000040004000400F4018C030403000300030603060182018400F80000000000003D
:2057C0000000000000000000000001E00318030C000C0004000601E60316060E060606067C
:2057E00006060604020C031800F00000000000000000000000000000000007F8060C020463
:205800000104010001000080008000400040004000600060006000600060000000000000E1
:205820000000000000000000000001F8030C060606060606020C031C00F001C8030C06063B
:20584000060606060606030C01F00000000000000000000000000000000000F0010C030C18
:2058600002060606060606060706068C0678060003000300010C018C0078000000000000C1
:20588000000000000000000000000000000000000000000000E000E000E000000000000068
:2058A0000000000000E000E000E00000000000000000000000000000000000000000000048
:2058C0000000000000600060000000000000000000000000000000600060004000200020C8
:2058E00000000000000000000400020001000080004000200010000800040008001000206D
:205900000040008001000200040000000000000000000000000000000000000000000000C0
:205920000000000007FE00000000000007FE0000000000000000000000000000000000005D
:205940000000000000000000000400080010002000400080010002000400020001000080C1
:20596000004000200010000800040000000000000000000000000000000003E006180C049A
:205980000C040C0C0C0C070001800040004000400000000000E000E000E0000000000000DF
:2059A000000000000000000000E00318020C05CC0564056605A604B604B604B604B602B6EE
:2059C00001E4040C020C031800F000000000000000000000000000000000006000600050A9
:2059E00000D00090009000880188010801F8030403040204020206020F0F00000000000066
:205A00000000000000000000000000FE038C030C030C030C030C018C00FC030C020C060C05
:205A2000060C060C060C030C01FE0000000000000000000000000000000003E00318060C12
:205A4000040C04040006000600060006000600060406040C020C031800F0000000000000D7
:205A600000000000000000000000007F018C030C030C060C060C060C060C060C060C060C7E
:205A8000060C030C030C018C007F0000000000000000000000000000000003FF03060406B5
:205AA000040600060086008600FE008600860086000604060406020603FF00000000000016
:205AC0000000000000000000000003FF03060406040600060086008600FE00860086008605
:205AE0000006000600060006001F0000000000000000000000000000000000F00118020C58
:205B0000020C020400060006000600060FC603060306030C030C031800F000000000000049
:205B2000000000000000000000000F0F06060606060606060606060607FE060606060606D6
:205B400006060606060606060F0F0000000000000000000000000000000003FC0060006038
:205B600000600060006000600060006000600060006000600060006003FC000000000000A6
:205B80000000000000000000000007F800C000C000C000C000C000C000C000C000C000C086
:205BA00000C000C000C000C000C000C60066003C0000000000000000000003CF018600C69E
:205BC0000046002600160036002E006E004600C60086018601060306078F000000000000B2
:205BE00000000000000000000000001F00060006000600060006000600060006000600064A
:205C0000000604060406020603FF0000000000000000000000000000000007070386038640
:205C2000038E038E034E034E034A035A035A033A033203320332031207870000000000001A
:205C4000000000000000000000000F8E020C021C021C0234023402640264024402C4028493
:205C60000384038403040304021F0000000000000000000000000000000000F00198030C4F
:205C8000020C06060606060606060606060606060606020C030C019800F0000000000000F0
:205CA0000000000000000000000000FF030606060606060606060606038600FE000600060D
:205CC0000006000600060006001F0000000000000000000000000000000000F00198030CF5
:205CE000020C06060606060606060606060606060676024C03CC019800F007800300000096
:205D00000000000000000000000001FF03060606060606060606030600FE004600C60086B1
:205D200001860306030606060E0F0000000000000000000000000000000002F8030C020690
:205D400002060006000E003C00F803E003800700060206020606030C01F00000000000006A
:205D60000000000000000000000007FE046208610861006000600060006000600060006046
:205D8000006000600060006001F800000000000000000000000000000000071E020C020C49
:205DA000020C020C020C020C020C020C020C020C020C020C020C011800F000000000000040
:205DC00000000000000000000000070F020601040104010C010C00880088009800980050F1
:205DE00000500070003000200020000000000000000000000000000000000EF704620442C2
:205E0000044604460264026402E402E4029C019C0198019801880088008800000000000050
:205E200000000000000000000000079E010C01080118009000B0006000200060006000D03E
:205E40000090018801080304078E000000000000000000000000000000000F0F0406020456
:205E6000020C0108011800B800B0007000600060006000600060006001F8000000000000E1
:205E80000000000000000000000007FC020C03060102018000800040004000200020001014
:205EA00000180408040C020403FE0000000000000000000003E00020002000200020002024
:205EC0000020002000200020002000200020002000200020002000200020002003E000001F
:205EE00000000000000000000004000400080008001000100010002000200040004000C0DA
:205F00000080008001000100020002000200040000000000007C00400040004000400040B9
:205F200000400040004000400040004000400040004000400040004000400040007C000065
:205F4000000000600090010800000000000000000000000000000000000000000000000048
:205F6000000000000000000000000000000000000000000000000000000000000000000021
:205F80000000000000000000000000000000000000000000000000000000000000000FFFF3
:205FA000000000000018006000000000000000000000000000000000000000000000000069
:205FC0000000000000000000000000000000000000000000000000000000000000000000C1
:205FE0000000000001F0030C030C030003E0031C030E030603060B8E0E7C00000000000047
:2060000000000000000000000008000E000C000C000C000C01CC033C061C060C060C060CD6
:20602000060C060C020C031C01E4000000000000000000000000000000000000000000002A
:206040000000000000F0018C018C01860006000600060206020C010C00F00000000000008A
:206060000000000000000000020003C003000300030003000378038C030C0306030603061B
:20608000030603060304078C017800000000000000000000000000000000000000000000DB
:2060A0000000000001E003180208060C060C07FC000C000C0418021801E000000000000084
:2060C0000000000000000000000003C0066006300030003001FE0030003000300030003012
:2060E000003000300030003001FC00000000000000000000000000000000000000000000E3
:206100000000000007F006D8018C018C018C019800F8000C00FC03CC03060306038E00F800
:2061200000000000000000000008000E000C000C000C000C01EC031C030C030C030C030CD1
:20614000030C030C030C030C079E000000000000000000000000000000000060006000009E
:2061600000000040007C00600060006000600060006000600060006003FC00000000000004
:206180000000000000000000000001C001C000000000010001F00180018001800180018006
:2061A00001800180018001800180018000CC007C00000000000000000008000E000C000C63
:2061C000000C000C038C008C008C004C006C005C008C018C010C030C079E00000000000012
:2061E00000000000000000000040007C006000600060006000600060006000600060006023
:20620000006000600060006003FC00000000000000000000000000000000000000000000FF
:2062200000000000073706EE066606660666066606660666066606660FFF000000000000BE
:20624000000000000000000000000000000000000000000001EE031C030C030C030C030CF4
:20626000030C030C030C030C079E000000000000000000000000000000000000000000003D
:206280000000000000F00198030C06060606060606060606030C030C00F00000000000001C
:2062A000000000000000000000000000000000000000000001EE031C060C060C060C060C88
:2062C000060C060C030C031C01EC000C000C003E0000000000000000000000000000000029
:2062E000000000000278038C030C030603060306030603060304038C03780300030007C07B
:206300000000000000000000000000000000000000000000039F06580638001800180018F7
:20632000001800180018001800FF00000000000000000000000000000000000000000000FE
:206340000000000003F0031C020C020C003800F003C003040304038C01FC0000000000008A
:20636000000000000000000000000000002000200030003001FE003000300030003000308E
:20638000003000300230023001E00000000000000000000000000000000000000000000058
:2063A00000000208038E030C030C030C030C030C030C030C030C079C0178000000000000AE
:2063C0000000000000000000000000000000000000000000071E020C0108010801180090CF
:2063E00000B000B0006000600020000000000000000000000000000000000000000000005D
:20640000000000000EF7046204460264026402EC019C01980198019800080000000000009D
:20642000000000000000000000000000000000000000000007BC0118011000B000600060FF
:2064400000E0009001080308079E0000000000000000000000000000000000000000000013
:2064600000000000079E0108010801080090009000B0006000600060002000200024001CEC
:20648000000000000000000000000000000000000000000001FC018400C4004400600020F2
:2064A000003002180208030C01FC00000000000000000000030000800080008000800080F9
:2064C000008000800080004000200040008000800080008000800080008000800300000099
:2064E00000400040004000400040004000400040004000400040004000400040004000409C
:206500000040004000400040004000400040004000000000000C001000100010001000101F
:2065200000100010001000200040002000100010001000100010001000100010000C00001F
:206540000000001C042204C2038000000000000000000000000000000000000000000000B0
:2065600000000000000000000000000000000000000000000000000000000000000000001B
:20658000000008000808080808080000181800004800246C001200000000000000000000A9
:2065A000000024002424127F1212127F1212000000001C082A2A0C0A28182A281C2A08088F
:2065C0000000220015251515582A54542254000000000C0012120A12257611296E91000075
:2065E000060004060003000000000000000000004000102008100808080810082010004058
:20660000020008041008101010100810040800020000000008081C6B6B1C080800000000C0
:206620000000000008080808087F0808000800000000000000000000000000000606030488
:20664000000000000000000000FE0000000000000000000000000000000000000606000030
:20666000000040802040102008100408020400020000180042244242424242421824000058
:2066800000000800080E0808080808083E08000000003C0042422042102004087E42000048
:2066A00000003C0042421820402042401C22000000002000283024242222207E7820000088
:2066C00000007E0002021A02402642401C2200000000380002241A02422642421824000054
:2066E00000007E0022221010080808080808000000003C0042422442241842423C42000024
:206700000000180042244242586440401C240000000000000000181800000000181800009B
:20672000000000000000080000000000080004080000400010200408040210084020000043
:20674000000000000000007F0000007F00000000000002000804201020400810020400007F
:2067600000003C0042424046102000101818000000001C005A2255555555422D1C220000CA
:2067800000000800180814143C244222E742000000001F0022221E22422242421F220000F0
:2067A00000007C0042420101010142011C22000000001F0042224242424242421F22000004
:2067C00000003F0012421E12121242023F42000000003F0012421E12121202020702000019
:2067E00000003C0022220101710122211C2200000000E70042424242427E4242E7420000C8
:2068000000003E0008080808080808083E08000000007C00101010101010101010100F1178
:206820000000770012220E0A120A2212772200000000070002020202020202027F420000D4
:2068400000007700363636362A2A2A2A6B2A00000000E30046464A4A5252625247620000A8
:2068600000001C0041224141414141411C22000000003F0042424242023E02020702000041
:2068800000001C00412241414141534D1C32006000003F0042423E4212122222C742000073
:2068A00000007C0042420402201842403E42000000007F0008490808080808081C08000074
:2068C0000000E70042424242424242423C4200000000E7004242242214241814080800001E
:2068E00000006B004949494955552236222200000000E7002442182418182424E742000099
:206900000000770022221414080808081C08000000007E0020211010040842043F4200009E
:206920007800080808080808080808080808007800000202040408081008201020204040E3
