:200000008000202051B5000051B1000051B100000000000000000000000000000000000016
:2000200000000000000000000000000051B10000000000000000000051B1000051B10000BA
:2000400051B1000051B1000051B1000051B1000051B1000051B1000051B1000051B1000090
:200060000000000051B1000051B10000000000000000000051B1000051B1000051B1000076
:2000800046E5000051B1000051B1000051B1000051B1000051B1000000000000000000002B
:2000A00051B1000051B10000000000000000000051B100000000000051B1000051B1000036
:2000C000000000000000000000000000000000000000000000000000000000000000000020
:2000E000000000000000000000000000000000000000000000000000000000000000000000
:200100000000000000000000000001C001C001C001C001C001C001C0008000800080008098
:200120000080008000800000000000000000018003C003C0018000000000000000000000B7
:200140000000000000001CE01CE01EF00E7007380318010800840000000000000000000034
:2001600000000000000000000000000000000000000000000000000000000000000000007F
:20018000000000000000000000000000102010201020102010207FFE7FFE0810081008102D
:2001A00008100810081008107FFE7FFE0408040804080408040800000000000000000000A9
:2001C00000000000000000000100010007C0196031103118391839180138017001E003C063
:2001E00007800F001D0039003100311C311C310C110C0D1807E001000100010000000000DF
:20020000000000000000000000000000101C183608630C63046304630263026301631D363B
:20022000379C2280638063406340632063206330221036181C0800000000000000000000E3
:2002400000000000000000000000000000F00198018C018C018C018C008C00CC00783E18BB
:20026000081C083608320463046304C303C343834306268E1C780000000000000000000030
:20028000000000000000001C003C003C003000300010000C00060000000000000000000048
:2002A00000000000000000000000000000000000000000000000000000000000000000003E
:2002C00000000000000040002000100008000C000400060003000300030001800180018004
:2002E00001800180018001800180030003000300060006000C0008001000200040000000E0
:20030000000000000000000200040008001000300020006000C000C000C00180018001804C
:200320000180018001800180018000C000C000C000600060003000100008000400020000EA
:20034000000000000000000000000000000000000100038003800100711C793C3D7807C0D7
:20036000010007C03D78793C711C0100038003800180000000000000000000000000000036
:20038000000000000000000000000000000000000000010001000100010001000100010056
:2003A0007FFC010001000100010001000100010000000000000000000000000000000000BB
:2003C00000000000000000000000000000000000000000000000000000000000000000001D
:2003E00000000000000000000000000000000000001C003C003C003000300010000C0006E7
:200400000000000000000000000000000000000000000000000000000000000000000000DC
:200420007FFE0000000000000000000000000000000000000000000000000000000000003F
:2004400000000000000000000000000000000000000000000000000000000000000000009C
:2004600000000000000000000000000000000018003C003C001800000000000000000000D4
:2004800000000000000040006000200030001000180008000C000400060002000300010020
:2004A0000180008000C00040006000200030001000180008000C0004000600020000000043
:2004C00000000000000000000000000007C00C601830301830182018600C600C600C600C29
:2004E000600C600C600C600C600C20183018301818300C6007C0000000000000000000009D
:200500000000000000000000000000000100018001F80180018001800180018001800180D9
:2005200001800180018001800180018001800180018003C01FF80000000000000000000058
:2005400000000000000000000000000007E01C10180830043004300C300C30001800080038
:200560000400020001000080004020202010200830041FFC1FFC00000000000000000000B2
:2005800000000000000000000000000003E00E180C0C180C180C180C18000C00060003C0E1
:2005A0000E001800100030003000300C300C100C180C0C1803E000000000000000000000E6
:2005C0000000000000000000000000000C000E000E000F000E800E800E400E600E200E10C0
:2005E0000E100E080E040E047FFE0E000E000E000E000E000E007FC0000000000000000093
:200600000000000000000000000000003FF03FF00010001000100008000807C80C28181809
:2006200010083000300030003000300C300C180418040C0803F0000000000000000000002B
:200640000000000000000000000000000F8010C030203010001800180008000C0F8C186C48
:20066000303C601C600C600C600C600C601820183030186007C00000000000000000000093
:200680000000000000000000000000003FF83FF8101C080C0804040404000200020001008F
:2006A0000100010000800080008000C000C000C000C000C000C00000000000000000000038
:2006C00000000000000000000000000007E00C301818300C300C300C301C1838087007E018
:2006E00007B00E181C0C38063006300630063006180C0C1803E000000000000000000000B4
:2007000000000000000000000000000003E00418080C180C10063006300630063006380676
:200720003C0C361831F030001800180018000C0C060C030C01F00000000000000000000060
:200740000000000000000000000000000000000000000000000000000000018003C003C092
:200760000180000000000000000000000000018003C003C001800000000000000000000070
:20078000000000000000000000000000000000000000000000000000000000C000C00000D9
:2007A00000000000000000000000000000000000000000C000C00080008000400040000039
:2007C00000000000000000000000200010000800040006000300018000C0006000300018EB
:2007E000000C00180030006000C001800300060004000800100020000000000000000000BF
:2008000000000000000000000000000000000000000000000000000000007FFE000000005B
:200820000000000000007FFE0000000000000000000000000000000000000000000000003B
:20084000000000000000000000000004000800100020006000C00180030006000C0018008E
:20086000300018000C0006000300018000C00060002000100008000400000000000000003E
:200880000000000000000000000007C0183030086008600C601C601C601C30001C00060077
:2008A0000100008000800080008000000000018003C003C0018000000000000000000000AF
:2008C00000000000000000000000000007C01860301020182F0C4D8C4C864CC64CC64C66A5
:2008E000446644662666266615661CCC400C20083018183007C0000000000000000000005E
:2009000000000000000000000000010001C001C001C001400360032003200320063006103A
:20092000061006100FF80C080C080C080C0C1804180418067C1F000000000000000000003F
:2009400000000000000000000000000007FE1C183818301830183018301818180C1807F89B
:2009600018183018201860186018601860186018301818180FFE00000000000000000000EA
:2009800000000000000000000000000027C0386030102018400C400C0004000600060006B2
:2009A00000060006000600060006400C400C200C3018183007C000000000000000000000FE
:2009C00000000000000000000000000003FE0E181818301830183018601860186018601808
:2009E0006018601860186018601830183018101818180E1803FE0000000000000000000090
:200A00000000000000000000000000003FFE30182018601840180018081808180C180FF8C6
:200A20000C180818081800180018001840184018201830183FFE000000000000000000009D
:200A40000000000000000000000000007FFE70184018C018801800181018101818181FF81A
:200A60001818101810180018001800180018001800180018007E00000000000000000000D0
:200A800000000000000000000000000013C01C7010101018200C200C000400060006000641
:200AA00000060006FC0630063006300C300C30183018083007C000000000000000000000B5
:200AC0000000000000000000000000007E3F180C180C180C180C180C180C180C180C180C15
:200AE0001FFC180C180C180C180C180C180C180C180C180C7E3F00000000000000000000DA
:200B00000000000000000000000000001FF801800180018001800180018001800180018035
:200B200001800180018001800180018001800180018001801FF80000000000000000000094
:200B40000000000000000000000000007FE006000600060006000600060006000600060000
:200B6000060006000600060006000600060006000600060006000600060E030E018E00FC7D
:200B80000000000000000000000000007C7E1818081804180618021801180198019801D893
:200BA00003B80338071806180E180C181C18181830183018FC7E000000000000000000004A
:200BC000000000000000000000000000007E001800180018001800180018001800180018BF
:200BE00000180018001800180018001840184018201830183FFE00000000000000000000F8
:200C0000000000000000000000000000F81F381C381C381C3C1C3434343434343634327421
:200C2000326432643264316431C431C431C430C430C43084FC9F0000000000000000000047
:200C40000000000000000000000000007C1F101C103C103410341074106410E410C411C464
:200C6000118413841304170416041E041C041C041C041804181F0000000000000000000027
:200C800000000000000000000000000003C00C3018181008300C300C6006600660066006FD
:200CA00060066006600660066006200C300C100818180C3003C00000000000000000000087
:200CC0000000000000000000000000000FFE181830186018601860186018601830181818BF
:200CE0000FF8001800180018001800180018001800180018007E0000000000000000000097
:200D000000000000000000000000000003C00C301818100C300C200C600660066006600688
:200D20006006600660066006600661E4332C321C16180E3007C04C007C0038000000000090
:200D400000000000000000000000000007FE1C183818301830183018301818180C1807F897
:200D6000039803180718061806180E180C180C181C181818787E000000000000000000009A
:200D800000000000000000000000000027E038303018200C200C000C000C0018007803E0B9
:200DA0000F801E00380070006000600460046008301818380FC800000000000000000000DF
:200DC0000000000000000000000000003FFC218C618441824182018001800180018001803B
:200DE000018001800180018001800180018001800180018007E00000000000000000000002
:200E00000000000000000000000000007C3F100C100C100C100C100C100C100C100C100C1B
:200E2000100C100C100C100C100C100C100C100C0808043803E000000000000000000000A3
:200E4000000000000000000000000000F83E201820182018103010301030103008600860E4
:200E600008600CE004C004C004C003800380038003800100010000000000000000000000C4
:200E8000000000000000000000000000F3DF618621862186218C210C238C138C138C138CE5
:200EA000134C125816580E580E380E380E380C30041004100410000000000000000000004B
:200EC0000000000000000000000000003E7E08180838043004300270026001E001C001C057
:200EE0000180038003400740062006200C100C10180818087C3E00000000000000000000E6
:200F00000000000000000000000000007C7E101C1018081808300C3004700460026002C0F3
:200F200002C001C00180018001800180018001800180018007E0000000000000000000003F
:200F40000000000000000000000000003FF8181818080C040E0406000700030003800180D4
:200F600001C000C000E000600070003020382018101C180C1FFE0000000000000000000013
:200F80000000000000003FC000400040004000400040004000400040004000400040004052
:200FA00000400040004000400040004000400040004000400040004000403FC000000000F2
:200FC0000000000000000000000000080018001800100030002000600060004000C0008039
:200FE000018001800100030002000600060004000C00080018001800100030002000000035
:2010000000000000000003FC020002000200020002000200020002000200020002000200B9
:20102000020002000200020002000200020002000200020002000200020003FC0000000097
:20104000000000000000078006C008201010000000000000000000000000000000000000FB
:20106000000000000000000000000000000000000000000000000000000000000000000070
:20108000000000000000000000000000000000000000000000000000000000000000000050
:2010A000000000000000000000000000000000000000000000000000000000000000FFFF32
:2010C000000000000000007800C001000000000000000000000000000000000000000000D7
:2010E0000000000000000000000000000000000000000000000000000000000000000000F0
:20110000000000000000000000000000000000000000000000000000000003F006180C0CA6
:201120000C0C0C000F800C700C1C0C0C0C060C064C064F0C38F8000000000000000000003F
:20114000000000000000000000000010001E0018001800180018001800180F1818D8303852
:20116000603860186018601860186018601820183038187807C80000000000000000000008
:20118000000000000000000000000000000000000000000000000000000007C00C701818DC
:2011A0001818180C000C000C000C000C200C20181018083007C00000000000000000000020
:2011C0000000000000000000000010001E001800180018001800180018001BE01C301818DA
:2011E0001818180C180C180C180C180C180C18081C187A3009E00000000000000000000000
:20120000000000000000000000000000000000000000000000000000000007C00C3018189B
:201220001008300C300C3FFC000C000C000C20181018187007C00000000000000000000010
:201240000000000000000000000000003E00C380C080C0C000C000C000C01FFC00C000C072
:2012600000C000C000C000C000C000C000C000C000C000C00FF800000000000000000000E7
:20128000000000000000000000000000000000000000000000000000000077C06C30181053
:2012A00018181818181818100C3007F0001800180FF03FF07008600C600C600C38380FE0CA
:2012C000000000000000000000000010001E0018001800180018001800180F9818D8303851
:2012E0003018301830183018301830183018301830183018FC7E00000000000000000000A4
:20130000000000000000000000000000038003800380000000000000010001F80180018048
:2013200001800180018001800180018001800180018001801FF8000000000000000000008C
:2013400000000000000000000000000038003800380000000000000010001F801800180006
:2013600018001800180018001800180018001800180018001800180018000C18061803F000
:20138000000000000000000000000010001E0018001800180018001800183E180C180618F7
:2013A00003180118019801D80338071806180C181C1818187C7E000000000000000000008D
:2013C00000000000000000000000010001F80180018001800180018001800180018001808A
:2013E00001800180018001800180018001800180018001801FF800000000000000000000CC
:2014000000000000000000000000000000000000000000000000000000081CEE339C318C2E
:20142000318C318C318C318C318C318C318C318C318C318C7BDE00000000000000000000F1
:2014400000000000000000000000000000000000000000000000000000100F1E18D83038F7
:201460003018301830183018301830183018301830183018FC7E0000000000000000000022
:20148000000000000000000000000000000000000000000000000000000007C01C703010B9
:2014A0003018600C600C600C600C600C600C30183018183007C000000000000000000000BD
:2014C00000000000000000000000000000000000000000000000000000100F9E1858303877
:2014E000201860186018601860186018601830183038187807980018001800180018007E27
:20150000000000000000000000000000000000000000000000000000000023C03C3038182C
:201520003018300C300C300C300C300C300C300838183C3033E03000300030003000FC0038
:2015400000000000000000000000000000000000000000000000000000603C7E66606160EA
:2015600000E000E00060006000600060006000600060006007FE00000000000000000000A6
:20158000000000000000000000000000000000000000000000000000000027E03830301894
:2015A00020180018007003E00F801C0030043004300C181C0FEC000000000000000000000A
:2015C0000000000000000000000000000000000000800080008000C000E01FFC00C000C050
:2015E00000C000C000C000C000C000C000C020C020C011800F00000000000000000000004B
:2016000000000000000000000000000000000000000000000000000020103C1E30183018B0
:20162000301830183018301830183018301830183818F43013E00000000000000000000003
:2016400000000000000000000000000000000000000000000000000000003C7E1818081880
:2016600008380430043002700260026001E001C001C000C0008000000000000000000000E9
:201680000000000000000000000000000000000000000000000000000000F7DF638E230C54
:2016A000238C238C13981398165816580E700E700E700420042000000000000000000000D8
:2016C00000000000000000000000000000000000000000000000000000003EFC08700470E4
:2016E00004E002C001C003800380074006600C200C1018187E3E000000000000000000009C
:2017000000000000000000000000000000000000000000000000000000007C7E181808187F
:201720000830083004300460046002C002C002C0018001800180008000800080004C003C6C
:2017400000000000000000000000000000000000000000000000000000001FFC0C0C0E0444
:20176000060403000380018000C000E0207020303038181C1FFC0000000000000000000021
:201780000000000000003000080004000400040004000400040004000400040004000200E7
:2017A000018002000400040004000400040004000400040004000400040008003000000042
:2017C0000100010001000100010001000100010001000100010001000100010001000100F9
:2017E0000100010001000100010001000100010001000100010001000100010001000100D9
:20180000000000000000000C0010002000200020002000200020002000200020002000402C
:2018200001800040002000200020002000200020002000200020002000200010000C00006B
:201840000000003800C44086610222001C0000000000000000000000000000000000000025
:20186000000000000000000000000000000000000000000000000000000000000000000068
:20188000000000000000000000000000000000000000000000000000000000000000000048
:2018A0000000000000000000000000000000000000000000000000000060006000600060A8
:2018C000006000600060004000200020002000000000000000600060006000000000000028
:2018E000000000000660066003300198008800440000000000000000000000000000000084
:2019000000000000000000000000000000000000000000000000000002100210021002107F
:2019200007FE07FE0208010801080108010807FE07FE010401040104010400000000000051
:201940000000000000000040004001F00358034C03CC004C0058007000E001C001C00340E4
:20196000034C035C034C014800F00040004000000000000000000000010E010A0091009175
:20198000009100510051003A03AE02A00450045004480448044802840384000000000000EE
:2019A00000000000000000000038006C006C006C006C006C002C0798011C011A0133013368
:2019C000016300E308C309C6073C00000000000000000000000C001C00100010000800048F
:2019E0000000000000000000000000000000000000000000000000000000000000000000E7
:201A000000000000040002000100008000800040004000200020002000200020002000205F
:201A20000040004000800080010002000400000000000000000200040008001000100020D1
:201A4000002000400040004000400040004000400020002000100010000800040002000038
:201A6000000000000000000000000000004000C000400C460F4E01D001F00F5E0C460040B6
:201A8000004000400000000000000000000000000000000000000000000000000000004086
:201AA00000400040004000400FFE00400040004000400040000000000000000000000000D9
:201AC000000000000000000000000000000000000000000000000000000000000000000006
:201AE00000000000000C001C00100010000800040000000000000000000000000000000092
:201B0000000000000000000007FE00000000000000000000000000000000000000000000C0
:201B20000000000000000000000000000000000000000000000000000000000000000000A5
:201B400000000000001C001C001C0000000000000000000004000600020003000100010020
:201B600000800080004000400060002000200010001000080008000C0004000600020000FD
:201B80000000000000000000000000F00198030C030C06060606060606060606060606064A
:201BA0000606030C030C019800F0000000000000000000000000000000000040007C006056
:201BC00000600060006000600060006000600060006000600060006003FC00000000000086
:201BE0000000000000000000000000F8018403020306030603000100018000C0006000208C
:201C0000001002080204020603FE00000000000000000000000000000000007800C60186D6
:201C200001860180018000C00070018001000300030003060306018600F8000000000000D2
:201C4000000000000000000000000180018001C001A001A0019001880188018401820FFEC7
:201C6000018001800180018007E00000000000000000000000000000000003FC0004000472
:201C800000040004000400F4018C030403000300030603060182018400F800000000000098
:201CA0000000000000000000000001E00318030C000C0004000601E60316060E06060606D7
:201CC00006060604020C031800F00000000000000000000000000000000007F8060C0204BE
:201CE00001040100010000800080004000400040006000600060006000600000000000003D
:201D00000000000000000000000001F8030C060606060606020C031C00F001C8030C060696
:201D2000060606060606030C01F00000000000000000000000000000000000F0010C030C73
:201D400002060606060606060706068C0678060003000300010C018C00780000000000001C
:201D6000000000000000000000000000000000000000000000E000E000E0000000000000C3
:201D80000000000000E000E000E000000000000000000000000000000000000000000000A3
:201DA000000000000060006000000000000000000000000000000060006000400020002023
:201DC0000000000000000000040002000100008000400020001000080004000800100020C8
:201DE00000400080010002000400000000000000000000000000000000000000000000001C
:201E00000000000007FE00000000000007FE000000000000000000000000000000000000B8
:201E200000000000000000000004000800100020004000800100020004000200010000801C
:201E4000004000200010000800040000000000000000000000000000000003E006180C04F5
:201E60000C040C0C0C0C070001800040004000400000000000E000E000E00000000000003A
:201E8000000000000000000000E00318020C05CC0564056605A604B604B604B604B602B649
:201EA00001E4040C020C031800F00000000000000000000000000000000000600060005004
:201EC00000D00090009000880188010801F8030403040204020206020F0F000000000000C1
:201EE0000000000000000000000000FE038C030C030C030C030C018C00FC030C020C060C61
:201F0000060C060C060C030C01FE0000000000000000000000000000000003E00318060C6D
:201F2000040C04040006000600060006000600060406040C020C031800F000000000000032
:201F400000000000000000000000007F018C030C030C060C060C060C060C060C060C060CD9
:201F6000060C030C030C018C007F0000000000000000000000000000000003FF0306040610
:201F8000040600060086008600FE008600860086000604060406020603FF00000000000071
:201FA0000000000000000000000003FF03060406040600060086008600FE00860086008660
:201FC0000006000600060006001F0000000000000000000000000000000000F00118020CB3
:201FE000020C020400060006000600060FC603060306030C030C031800F0000000000000A5
:20200000000000000000000000000F0F06060606060606060606060607FE06060606060631
:2020200006060606060606060F0F0000000000000000000000000000000003FC0060006093
:2020400000600060006000600060006000600060006000600060006003FC00000000000001
:202060000000000000000000000007F800C000C000C000C000C000C000C000C000C000C0E1
:2020800000C000C000C000C000C000C60066003C0000000000000000000003CF018600C6F9
:2020A0000046002600160036002E006E004600C60086018601060306078F0000000000000D
:2020C00000000000000000000000001F0006000600060006000600060006000600060006A5
:2020E000000604060406020603FF000000000000000000000000000000000707038603869C
:20210000038E038E034E034E034A035A035A033A0332033203320312078700000000000075
:20212000000000000000000000000F8E020C021C021C0234023402640264024402C40284EE
:202140000384038403040304021F0000000000000000000000000000000000F00198030CAA
:20216000020C06060606060606060606060606060606020C030C019800F00000000000004B
:202180000000000000000000000000FF030606060606060606060606038600FE0006000668
:2021A0000006000600060006001F0000000000000000000000000000000000F00198030C50
:2021C000020C06060606060606060606060606060676024C03CC019800F0078003000000F1
:2021E0000000000000000000000001FF03060606060606060606030600FE004600C600860D
:2022000001860306030606060E0F0000000000000000000000000000000002F8030C0206EB
:2022200002060006000E003C00F803E003800700060206020606030C01F0000000000000C5
:202240000000000000000000000007FE0462086108610060006000600060006000600060A1
:20226000006000600060006001F800000000000000000000000000000000071E020C020CA4
:20228000020C020C020C020C020C020C020C020C020C020C020C011800F00000000000009B
:2022A00000000000000000000000070F020601040104010C010C008800880098009800504C
:2022C00000500070003000200020000000000000000000000000000000000EF7046204421D
:2022E000044604460264026402E402E4029C019C01980198018800880088000000000000AC
:2023000000000000000000000000079E010C01080118009000B0006000200060006000D099
:202320000090018801080304078E000000000000000000000000000000000F0F04060204B1
:20234000020C0108011800B800B0007000600060006000600060006001F80000000000003C
:202360000000000000000000000007FC020C0306010201800080004000400020002000106F
:2023800000180408040C020403FE0000000000000000000003E0002000200020002000207F
:2023A0000020002000200020002000200020002000200020002000200020002003E000007A
:2023C00000000000000000000004000400080008001000100010002000200040004000C035
:2023E0000080008001000100020002000200040000000000007C0040004000400040004015
:2024000000400040004000400040004000400040004000400040004000400040007C0000C0
:202420000000006000900108000000000000000000000000000000000000000000000000A3
:2024400000000000000000000000000000000000000000000000000000000000000000007C
:202460000000000000000000000000000000000000000000000000000000000000000FFF4E
:202480000000000000180060000000000000000000000000000000000000000000000000C4
:2024A00000000000000000000000000000000000000000000000000000000000000000001C
:2024C0000000000001F0030C030C030003E0031C030E030603060B8E0E7C000000000000A2
:2024E00000000000000000000008000E000C000C000C000C01CC033C061C060C060C060C32
:20250000060C060C020C031C01E40000000000000000000000000000000000000000000085
:202520000000000000F0018C018C01860006000600060206020C010C00F0000000000000E5
:202540000000000000000000020003C003000300030003000378038C030C03060306030676
:20256000030603060304078C01780000000000000000000000000000000000000000000036
:202580000000000001E003180208060C060C07FC000C000C0418021801E0000000000000DF
:2025A0000000000000000000000003C0066006300030003001FE003000300030003000306D
:2025C000003000300030003001FC000000000000000000000000000000000000000000003E
:2025E0000000000007F006D8018C018C018C019800F8000C00FC03CC03060306038E00F85C
:2026000000000000000000000008000E000C000C000C000C01EC031C030C030C030C030C2C
:20262000030C030C030C030C079E00000000000000000000000000000000006000600000F9
:2026400000000040007C00600060006000600060006000600060006003FC0000000000005F
:202660000000000000000000000001C001C000000000010001F00180018001800180018061
:2026800001800180018001800180018000CC007C00000000000000000008000E000C000CBE
:2026A000000C000C038C008C008C004C006C005C008C018C010C030C079E0000000000006D
:2026C00000000000000000000040007C00600060006000600060006000600060006000607E
:2026E000006000600060006003FC000000000000000000000000000000000000000000005B
:2027000000000000073706EE066606660666066606660666066606660FFF00000000000019
:20272000000000000000000000000000000000000000000001EE031C030C030C030C030C4F
:20274000030C030C030C030C079E0000000000000000000000000000000000000000000098
:202760000000000000F00198030C06060606060606060606030C030C00F000000000000077
:20278000000000000000000000000000000000000000000001EE031C060C060C060C060CE3
:2027A000060C060C030C031C01EC000C000C003E0000000000000000000000000000000084
:2027C000000000000278038C030C030603060306030603060304038C03780300030007C0D6
:2027E0000000000000000000000000000000000000000000039F0658063800180018001853
:20280000001800180018001800FF0000000000000000000000000000000000000000000059
:202820000000000003F0031C020C020C003800F003C003040304038C01FC000000000000E5
:20284000000000000000000000000000002000200030003001FE00300030003000300030E9
:20286000003000300230023001E000000000000000000000000000000000000000000000B3
:2028800000000208038E030C030C030C030C030C030C030C030C079C017800000000000009
:2028A0000000000000000000000000000000000000000000071E020C01080108011800902A
:2028C00000B000B000600060002000000000000000000000000000000000000000000000B8
:2028E000000000000EF7046204460264026402EC019C0198019801980008000000000000F9
:20290000000000000000000000000000000000000000000007BC0118011000B0006000605A
:2029200000E0009001080308079E000000000000000000000000000000000000000000006E
:2029400000000000079E0108010801080090009000B0006000600060002000200024001C47
:20296000000000000000000000000000000000000000000001FC018400C40044006000204D
:20298000003002180208030C01FC0000000000000000000003000080008000800080008054
:2029A0000080008000800040002000400080008000800080008000800080008003000000F4
:2029C0000040004000400040004000400040004000400040004000400040004000400040F7
:2029E0000040004000400040004000400040004000000000000C001000100010001000107B
:202A000000100010001000200040002000100010001000100010001000100010000C00007A
:202A20000000001C042204C20380000000000000000000000000000000000000000000000B
:202A4000000000000000000000000000000000000000000000000000000000000000000076
:202A6000000008000808080808080000181800004800246C00120000000000000000000004
:202A8000000024002424127F1212127F1212000000001C082A2A0C0A28182A281C2A0808EA
:202AA0000000220015251515582A54542254000000000C0012120A12257611296E910000D0
:202AC0000600040600030000000000000000000040001020081008080808100820100040B3
:202AE000020008041008101010100810040800020000000008081C6B6B1C0808000000001C
:202B00000000000008080808087F08080008000000000000000000000000000006060304E3
:202B2000000000000000000000FE000000000000000000000000000000000000060600008B
:202B40000000408020401020081004080204000200001800422442424242424218240000B3
:202B600000000800080E0808080808083E08000000003C0042422042102004087E420000A3
:202B800000003C0042421820402042401C22000000002000283024242222207E78200000E3
:202BA00000007E0002021A02402642401C2200000000380002241A024226424218240000AF
:202BC00000007E0022221010080808080808000000003C0042422442241842423C4200007F
:202BE0000000180042244242586440401C24000000000000000018180000000018180000F7
:202C000000000000000008000000000008000408000040001020040804021008402000009E
:202C2000000000000000007F0000007F0000000000000200080420102040081002040000DA
:202C400000003C0042424046102000101818000000001C005A2255555555422D1C22000025
:202C600000000800180814143C244222E742000000001F0022221E22422242421F2200004B
:202C800000007C0042420101010142011C22000000001F0042224242424242421F2200005F
:202CA00000003F0012421E12121242023F42000000003F0012421E12121202020702000074
:202CC00000003C0022220101710122211C2200000000E70042424242427E4242E742000023
:202CE00000003E0008080808080808083E08000000007C00101010101010101010100F11D4
:202D00000000770012220E0A120A2212772200000000070002020202020202027F4200002F
:202D200000007700363636362A2A2A2A6B2A00000000E30046464A4A525262524762000003
:202D400000001C0041224141414141411C22000000003F0042424242023E0202070200009C
:202D600000001C00412241414141534D1C32006000003F0042423E4212122222C7420000CE
:202D800000007C0042420402201842403E42000000007F0008490808080808081C080000CF
:202DA0000000E70042424242424242423C4200000000E70042422422142418140808000079
:202DC00000006B004949494955552236222200000000E7002442182418182424E7420000F4
:202DE0000000770022221414080808081C08000000007E0020211010040842043F420000FA
:202E000078000808080808080808080808080078000002020404080810082010202040403E
:202E20001E00101010101010101010101010001E380000440000000000000000000000001A
:202E40000000000000000000000000000000FF000600000800000000000000000000000065
:202E60000000000000003C0078424244FC4200000000030002021A02422642421A26000049
:202E800000000000000038000244020238440000000060004040784042444242D864000056
:202EA0000000000000003C007E4202023C4200000000F00008887E08080808083E08000028
:202EC0000000000000007C002222021C423C3C420000030002023A0242464242E7420000A0
:202EE00000000C00000C0E00080808083E08000000003000003038002020202020201E22AE
:202F000000000300020272020A1212167722000000000E0008080808080808083E080000C5
:202F20000000000000007F0092929292B79200000000000000003B0042464242E742000011
:202F40000000000000003C00424242423C4200000000000000001B00422642421E2207025F
:202F60000000000000007800424442427844E0400000000000007700044C04041F04000001
:202F80000000000000007C000242403C3E4200000000000008003E080808080830080000CF
:202FA000000000000000630042424242DC620000000000000000E7002442142408080000D3
:202FC000000000000000EB0049495555222200000000000000007600182418186E24000012
:202FE000000000000000E70024421424081807080000000000007E00102208087E4400009B
:20300000C00020202020102020202020202000C010101010101010101010101010101010C0
:2030200006000808080810080808080808080006320C00C20000000000000000000000001C
:203040000000000000000000000000000000040404040004040000001414000A0000000026
:203060000000000000000A0A0A1F1F0A0A0A00000400150E0605140C0E1500040000151236
:20308000150D2C2E122A000000000A04360A151516290000020200010000000000000000BC
:2030A000081004080404040408080010040208040808080804040002000004000E15150E36
:2030C00000040000000008003E080808000000000000000000000000020200010000000089
:2030E0003F0000000000000000000000000000000200000020001010080804040202000132
:203100000000110E111111110E11000000000604040404040E0400000000110E08110204C3
:203120001F0100000000110E0C1010100E11000000000C080A0C1F091C0800000000011F5F
:203140000F0110110E1100000000120C0D0111130E1100000000101E080804040404000062
:203160000000110E0E1111110E1100000000110E191110160609000000000000000400004E
:203180000400000000000000040000000400000400000810020404021008000000000000E3
:2031A000003F003F000000000000040210080810020400000000110E081104040400000011
:2031C0000000221C2D291D2D1C220000000004040A0C1E0A331200000000120F0E121212E3
:2031E0000F1200000000111E010101010E1100000000120F121212120F1200000000121FA1
:203200000E0A020A1F1200000000121F0E0A020A070200000000121C010111390C12000063
:20322000000012331E121212331200000000041F040404041F0400000000083E08080808F4
:203240000808070900001237060A120A3712000000000207020202023F22000000001B3BC8
:203260001B1B1515351500000000123B16161A1A171200000000110E111111110E1100004C
:203280000000120F0E120202070200000000110E111117110E1900180000120F0E12120ADB
:2032A000371200000000111E060110080F1100000000151F040404040E04000000001233BC
:2032C000121212120C120000000012330A120C0A040400000000151515150A0E0A0A000089
:2032E00000000A1B040A0A041B0A000000000A1B0A0A04040E0400000000091F04080204DB
:203300001F120000041C0404040404040404001C020004020404080810080010080E0808B2
:20332000080808080808000E0A0400000000000000000000000000000000000000003F0002
:20334000040200000000000000000000000000000C001C123C120000030002020E021212A4
:203360000E120000000000001C0002120C120000180010101C1012123C1200000000000009
:203380000C001E121C020000180004241E0404041E040000000000003C000C121C021C2291
:2033A000030002020E0212123712000004000004060004040E040000080000080C00080835
:2033C00008080708030002021A02060A130A000007000404040404041F040000000000003C
:2033E0000F00151515150000000000000F00121237120000000000000C0012120C120000A0
:20340000000000000F0012120E120702000000001C0012121C123810000000001B00020677
:2034200007020000000000001E000C021E100000000004001E0404041C04000000000000DB
:203440001B0012123C120000000000001B000A0A040400000000000015000E150A0A00005C
:20346000000000001B00040A1B0A00000000000033001212080C0304000000001E00040862
:203480001E040000081808080C08080808080018080808080808080808080808040604041C
:2034A0000804040404040006091600000000000000000000000100000000000000000000CA
:2034C000004000000000000000000000010200000001000000000000003441C431303332A9
:2034E0003534373639386261646366650400FF07000000004C4A000001000000000000008F
:2035000079424520737547736C617265080000000000000000020000000000000004000037
:183520000000100700000000001800003000000000080000000000002C
:20354000B5F0B0FFB08C93044615460698909000918A68344620F001FE0A1820210091895C
:2035600090024284D24422009285A885920373021C64460F1E6078002800D0342825D00653
:20358000603446299A0447901C7F1C64E7F2980343C0900197891C60900360307820A9850B
:2035A00073082873D109A98AAA8946289B04F000F82199899C039A01E011AC05A985AA8A3F
:2035C0004620F000F8354602462046299B0047981C419A014611D00019C191899C031C48BB
:2035E0009802D1BEE000463A4610B07FB00CBDF0460AE7F9B5F8460468081D05600D6806C0
:203600002E00D01194004614461D4630F001FDAF4607682019C06020240042BCDA075D3079
:20362000990047A81C64E7F8200046214798BDF8B5F0B0859201460E4604207F0080182521
:203640002700970321FF910231FE22204620F001FD879504706F7B302825D0521C6B2878F1
:20366000D0132864D011286FD00F2863D1209A0168101D0160116801B2C8424741479A02D6
:20368000461030FC18207029E014461DA903AA0446309B01F000F83B980399042800D003BE
:2036A0001E48222D700AE00046089A02462BE00146289A021A1929004625DC011A611C4D2D
:2036C0001C410053260046284632F001FAE32F00D0021C417006E000460142A1D8061E483E
:2036E0001A611C492220F001FD3B70261B2922204620F001FD354620F001FD3919C0B005BF
:20370000BDF020007060202570202001E7F7B5F84614460D46067B074619F000F8147B3109
:203720002964D1042800D5022101602942402F6FD001210AE00021082F78D1002110462247
:20374000F000F812BDF87B002864D005286FD0032878D0012870D10468081D02600A680035
:2037600047702000477046C0B5F84614460D46062800D10468201E416021213070014F0A8F
:203780002E00D00D46304629F000F810460143691A715C7968221E53602370114606E7EFCD
:2037A0006820F001FCE4BDF834DC0000B5802910D0032908D10308C0BD800900BD80F00169
:2037C000F8F3BD80B5F0B0974614460D4606991E9A1D981CAF169701803EAE15960280358F
:2037E000AD149503702CAC138023AB128018A81190047002AA107011AA0C21009105701135
:203800009916AA09801178000841A80E90067001780108C8900707491C4029009008D10118
:20382000980790089B049A06990298019D039E08781C4374AE0A80349C143C20702C8800B1
:203840008809781218821E52781B18CB1E5BB292B29BF000FF1D9805A90B8008E7FFA80B45
:203860008800A90A88094288DB00E0ABA8117800280CD10CE7FFA8147800210C43414855A2
:203880001840A90B88095C40A90F7008E034A81178002810D10BE7FFA81478000101484CB6
:2038A0001840A90B88095C40A90F7008E023A81178002818D10CE7FFA8147800213043415F
:2038C00048421840A90B88095C40A90F7008E011A81178002820D10BE7FFA8147800018113
:2038E00048391840A90B88095C40A90F7008E000E068E7FFE7FFE7FFA90D20007008E7FFD0
:20390000A80D78002807DC57E7FFA81078002800D124E7FFA80F7800A90D780940C807C0CA
:203920002800D005E7FFA8138800F001FA14E004A8128800F001FA0FE7FF980C1C41A80CA7
:2039400070017800A90E7809F001F82E2900D104E7FFA90C20007008E02EE027A80F7800BA
:20396000A90D780940C807C02800D009E7FFA8168800A9158809AA138812F001F8E9E7FFB6
:2039800098161C41A81680018800A90988091A40A90E78094288D108E7FF9809A91680080F
:2039A00098151C40A9158008E006E7FFE7FF980D1C40A90D7008E7A3E7FF980B1C40A90BB4
:2039C0008008E74CB017BDF000C00000188000002A50000030400000B580B092F000FCF71C
:2039E0002001900504819101486B9002F001FB2620649003F001FAEA99019802F001FA4A4E
:203A00009803F001FAE3980299050609F001FA429803F001FADB2011F001F86A2078F0015B
:203A2000FAD52036F001F8642070F001FB39203AF001F85E20059006F001FB3220B2F00122
:203A4000F857200C9004F001FB2B9804F001FB282000F001FB252033900BF001FB21980BC1
:203A6000F001FB1E20B7F001F8432035F001FB1820BBF001F83D2032F001FB1220C2F001BC
:203A8000F8379805F001FB0C20C3F001F8312015900FF001FB0520C4F001F82A2020F00178
:203AA000FAFF20C6F001F824200FF001FAF920D09007F001F81D20A4F001FAF220A1F00127
:203AC000FAEF20E0F001F8149807F001FAE920089008F001FAE5200E9009F001FAE1200941
:203AE000900AF001FADD980AF001FADA9806F001FAD720319010F001FAD3980BF001FAD090
:203B00002048900CF001FACC2017900DF001FAC82014900EF001FAC4980FF001FAC19810E7
:203B2000F001FABE20349011F001FABA20E1F000FFDF9807F001FAB49808F001FAB1980958
:203B4000F001FAAE980AF001FAAB980AF001FAA8980FF001FAA59810F001FAA2980BF0015F
:203B6000FA9F980CF001FA9C980DF001FA99980EF001FA96980FF001FA939810F001FA90E9
:203B80009811F001FA8D2021F000FFB22029F000FFAFB012BD8046C02000400AB5F0B091E6
:203BA0004614460D4606981899179A16AF10803EAE0F8035AD0E802CAC0D7023AB0C801A09
:203BC000AA0B8011A90A7008AA072000701078090849AA067011A9097008E7FFA8097800E7
:203BE000A90D78094288DA63E7FFA80E88009004990D980943C01840B2C1200A9005F0000B
:203C0000FF8F46019804F000FECF9905F000FECCA8087001A80778002800D12AE7FFA8091C
:203C20007800A90D78091E494288DA22E7FFA80878002800D118E7FF9810A909780AA90618
:203C4000780943511840A90F8809AA0C8813AA0B8812AC0A78242500950294019200B280A7
:203C60002220F7FFFDAFE01EA90720017008E7FFE7FF9810A909780AA90678094351184055
:203C8000A90F88099A083230AB0C881BAC0B8824AD0A782D2600960295019400B280B2D220
:203CA000F7FFFD90E7FF98091C40A9097008E795B011BDF0B5F0B0834A3B188292022311CB
:203CC000021C7A8D1E6BB2DB2B02D808009E4F3759BE274901FF437B19DA9201E0022200A9
:203CE000920126021902920068CF00AD1945203101C0582C238F439C401F43374327502F31
:203D000068489C02606078082805D8372601463740872309421FD10D2312421FD0174B2714
:203D20007A4F4A2318AE58AA4D2240152F01D11B431DE0227A4B4C1E592F4A1E403A27770C
:203D4000401F19D2047318D2512A9C02E0167A4A4B1718EE58EB4D17401D2A01D10B4A1711
:203D600018AA1C526032E00922774017433D195A32FF6032E0024A104315603522009B000C
:203D8000601A1EC028039B01D201202043037A0868214A0B400A21BD400143194311200210
:203DA00043086020B003BDF01804000035100000183000008888FFFD02010002010100021A
:203DC0000040CFFFB4FC000C405C0FE407E4B410031D0B2D0056416D005F0D7FD07324012C
:203DE000056443252407022434FF42A7D061030B0B1B0042415B00480D40D06424010564EB
:203E000043232407022434FF42A0D0521BC021002700243642ABD10042B2D304417F414964
:203E20001B9241ABE001417F41491E64D0062B00D1012A00D0020052415BE7EB2C20D20788
:203E40002C16D30A003940A726201B3640F1E00B3C20003940A12700E00640A126201B3675
:203E6000003D40F5432940A7240105644221D102007F41491E4024001C7F4161240105A423
:203E80004221D0021C4043A1E001086443A12403022434FF1900DD16192442A0D80907CC1D
:203EA00008490500430108784320BC104321BCFC4770BC0220000FC9020921FF00C91DC956
:203EC0000509BCFC477021002000B001BCFC4770B086483821A05C41A80570012100910020
:203EE00078002801DB0BE7FFA805780000C04931184038086841910468009003E007482DC9
:203F0000219858419103309868409004E7FFA80578001E402801DB0BE7FFA805780000C074
:203F20004924184038106841910268009001E015A80578002801D108E7FF481E2198584185
:203F40009101309868409002E007481A219058419101309068409002E7FFE7FF98039901AD
:203F60004288D105E7FF980299041A409000E01D980399011A402801D107E7FF99049802F0
:203F80001A40490D18409000E00F9903980143C0184249094608435090009A0498021A8073
:203FA0009A00188018409000E7FFE7FF9800B006477046C000F820204C4A0000B5F0B08469
:203FC00049304A31250103AC6816022B9303439E6016680E4226D105680E4226D102680EA5
:203FE0004226D0F6026C7E46699743AF402E19BD619525205D4569D6270343BE403D1975D9
:2040000061D54D22682E270740372605602E6A466833621368736253602F69C3065B0C5B34
:2040200069D5267F023643B518EB61D3C8E897006807970168479702071B0B1B032DB2ADC9
:2040400018ED07330D1B7A009E004335431D9B01431D9B02431D430569904B0D4003480DDF
:20406000402818C0619068109B034318601068084220D10568084220D10268084220D0F649
:20408000B004BDF00204400B0108400B13004040008DFFF0FF72000FB4FC270107FF4079F4
:2040A000E002B4FC270107FF020C004D0E2DD1032C00D152BCFC4770433C2DFFD05008A4A1
:2040C0002900D5004264020200430E1BD1042A00D1430008BCFC4770433A2BFFD0410892F0
:2040E0002800D50042521B5ED50400170022003C4276002B2E19D5060027413719D2271C96
:204100001BF7427F40BC2A00D027D50242522701E00027003B010052D5FC00152680403586
:20412000D00F001526204035432C3280D208001526404035432CD1042601023643B2E0006D
:204140001C5B00523302DD082BFFD20B0A5005DB431807FF4338BCFC47702000BCFC477061
:2041600000080FC707FF20FF05C04338BCFC4770B580B0882009F000FE75200AF000FE720A
:2041800020212104F000FD98201421029102F000FDF199022015F000FD8F2019210391062C
:2041A000F000FDE899062018F000FDE499062017F000FD822300930020019003040220238A
:2041C0004619F000FC65202BF000FE40202CF000FE3D202FF000FE3A2033F000FE379803B5
:2041E00003819105480C9004F000FF3298049905F000FE149806048148089007F000FF283F
:20420000980721110509F000FE5D980721470489F000FE04B008BD800000400A2000400A45
:20422000B580B086200090049005F000FCA720010381481DF000FE3A481CF000F9A3F7FF1F
:20424000FBCB20C8F000FEE4990448199000202300C223F04608F000F8352010F000FCA40D
:204260004814F000FE8FE7FF4813F000F8ABF000F9B7217F05C9F7FFFF144601480F60017B
:204280006800F000FBCF4601480D60018802201090024807900120009000210A2305460882
:2042A000F7FFFC7CE7E046C00000400A35000000FFFF0000400040085A00026201CC2020F3
:2042C00001D02020B5B0B0884614460D46019A0CA8078001A906800DAD05802CAC04802379
:2042E000AB03801A880088099A051E529B041E5BB292B29BF000F9CC9806A9028008E7FF39
:20430000A8028800A90488094288DA1BE7FF9807A9018008E7FFA8018800A9058809428897
:20432000DA0AE7FFA8038800F000FD15E7FF98011C40A9018008E7EEE7FF98021C40A90215
:204340008008E7DDB008BDB0B5F81C45780023002B08D032782F07C2D10C786A240F401458
:204360001CE42C12D10B2402572EB2F42E00D4081CEEE00E1C6D1C4A700F4611E01A1CAE47
:20438000E0081D2E78ED9500257F402C9D0001ED192C3412013D091219524D0942AAD00EE6
:2043A00043D22C00D0055C8D1C4F700D1E644639E7F7463508401C5BE7CA4628E7C5BDF87D
:2043C0000FFF00001E811F09BF00D2FC47704770B40C4B1B004A1AD2D21B0D00030A431057
:2043E000220102121880D3020840031218890A402900D502220107D2431000490D49223889
:2044000001121A89D40C29FFD20D05C94308BC0C477043DB401A4302D00543D8BC0C47703B
:204420002000BC0C47700FC907C920FF05C04308BC0C477046C046C046C046C046C046C063
:204440000000FFE0B0859004202690009904205043489003481668009002E7FF48146800B1
:204460009001980199024288D01FE7FF980199024288D207E7FF980299011A41980018409C
:204480009000E009480B680099011A4099021841980018409000E7FF98019002980099033B
:2044A0004288D301E7FFE001E7FFE7D7B0054770E018E000E014E000B580B0864813900184
:2044C000F000FCDC48129002F000FCD848119003F000FD4C48109004F000FD6C480F90050E
:2044E000F000FD209801F000FCA59802F000FCA29803F000FD2F9804F000FD509805F00040
:20450000FCF92010F7FFFF5EB006BD800000400A2000400A4000400880004010A0004046FE
:20452000B5F04B16461D3D08682E240143A6602E681E2703033F43BE4038183060186818F0
:2045400026FF43B0B2C918406018682843206028681D2A00D00E480A022107224315601D7D
:204560006802420AD1056802420AD1026802420AD0F6BDF007204385601DBDF00110400B88
:204580000204400BB083B51EAC05C40E9001480F680047804A0E69901C40D00DA90591025F
:2045A000480C900032184B0CA801F7FEFFC94604480A68004780E0044808680047802000C2
:2045C00043C44620BC1EBC02B003470800F020200000202051A9000051A1000000F4202044
:2045E000B580B084481221A458402802D319E7FFF7FFFC6E900298022800D00FE7FF98028C
:20460000F000FB364602460B2000490AF7FFFBDAF7FFFEDE900198019003E005200090037B
:20462000E00220009003E7FF9803B004BD8046C000F820207800409EB580B08220009001C7
:20464000F000FC7C200190000240F000FB459801F000FB9EF000FD5CF000FD049A002003B6
:204660000300210AF7FFFF5C4808F7FFFCA72010F000FB9CF000FD00F000FD529801F00066
:20468000FB3B9801F000F8EAB002BD8034B40000B510B086AC058020A80490008001A803EE
:2046A0008002A80290018003202AF000FA2198053014B280F000FB4F98033014B280F00017
:2046C000FB4A202BF000FA1498008800F000FB4398018800F000FB3F202CF000FA09B006BE
:2046E000BD104770B580B0844810F000FCEC460191012802D011E7FF98012805D112E7FF44
:20470000480B6800900248092100F000FD19900399039802F000F8E6E005490568081C403E
:204720006008E000E7FFB004BD8046C04000400801C82020B580B084900391029803F000A9
:20474000FD1D46698008A90120008008E7FFA8018800466988094288DA0DE7FF9803A90183
:2047600088095C414806F000FAD7E7FF98011C40A9018008E7EB46688800B004BD8046C0F0
:2047800080004010B580B0849003910292019803490B184099024A0BF000FA1C9803490AFC
:2047A00018409901223FF000FA1599034A071888588922014011F000FA0DB004BD8046C0D7
:2047C00011100000FFFF00001114000011040000B5702211021318C258C4250143AC50C4F4
:2047E000880C788D4325888C432C58C54E08402E4D084025197450C4798879CB43037A08EC
:2048000043186851237E4399401818086050BD7098E7FFFD67180000B5702211021318C271
:20482000890C884D4325798C432C58C54E09402E4D094025197450C4888879CB43037808DA
:2048400043186851235D009B4399401818086050BD7046C0CC80FFFF337F0000B510490EDA
:204860004A0E2301055C609068084220D10568084220D10268084220D0F66810041B4303A9
:204880006013680806C0D405680806C0D402680806C0D5F6BD1046C00204400B0104400B15
:2048A000B580B082A9019100700820010501480BF000FBC4980078014809F000FB93E7FFEF
:2048C0004807F000FB232800D001E7FFE7F8200105014802F000FADEB002BD802000400A2B
:2048E000A0004046B510B08391029001480D900021A05C4200D419039A0151029A02605AFE
:2049000023A458C21C5250C25C421C5254425C402814DB05E7FF490322A020005488E7FF06
:20492000B003BD1000F82020B580B082490B480C9001F000FBBF9801490AF7FFFF6D98018E
:204940002100F000F983980121102202F000F8B89801F000FAC3B002BD8046C0350D0000BF
:20496000A0004046351C0000B580B082490B480C9001F000FBB19801490AF7FFFF299801E1
:204980002100F000F9D9980121410089221BF7FFFEF99801F000FB31B002BD80353000007D
:2049A0008000401035260000B51C000AD0172300240107E442A0D20000044294D90100521D
:2049C000E7FB4290415B4290D3001A804291D2010852E7F60019000200080011BD1C00015D
:2049E0002000F7FFFE7EBD1CB570480A4C0A4284D00C4D0A4E0A42B5D008682A68691C5090
:204A00007812009258A247903508E7F4BF00BF00BD7046C051F4000051E8000051FC000015
:204A2000520C0000B50600410E09397FD40D221F1A51D90C46860200220107D2431040C8B6
:204A400046722A00D5004240BD062000BD060002200107C02A00D4001E40BD06B580B08207
:204A6000490848099001F000F9BD98014907F7FFF92198012112F000F9A79801F000FB067E
:204A8000B002BD8034ED00004000400834F00000B510B0849C0690039102920193009802D9
:204AA00099014308990043089906430821814308990300894A015088B004BD108004404287
:204AC000B580B0849200460A460198009103A902700AAA01701098034B0418C078097812FB
:204AE0004311223FF000F876B004BD80110C0000B580B084A90391007008200104C19102FE
:204B000048069001F000FA9A98007800F7FFFEC898019902F000F9BEB004BD802000400A30
:204B2000B083AA027010A801700120019000E7FFAA0178101E4170112800D006E7FFA802C4
:204B40007800990043489000E7F29800B0034770B580B084460BA9038008A8028003AB0187
:204B60009300801A880A880346104619F7FFFD9098008800F000F8EFB004BD80B580F7FFA0
:204B8000FC9BF7FFFAF5F7FFFD57F7FFFF67F7FFFEEBF7FFFEC9F000FADB490222242000E1
:204BA0005488BD8001A02020B081460146687001210056402800D409E7FF46687801201F5C
:204BC00040012001408849026008E7FFB0014770E100E000B08490039102920198036800F9
:204BE00090009800990143889000980099029A014011430899036008B0044770B0819000FE
:204C000049052004600898001E4049046008490420006008B0014770E010E000E014E0002E
:204C2000E018E0004808F3808808BF00BF00F000FAC32800D001F7FFFED72000F7FFFAF05A
:204C40002001F000FABB46C080002020B580B0829001910098014904184099004A03F7FF25
:204C6000FFB9B002BD8046C01108000003FF00002800D10121004770B40422040212321F57
:204C800000011E520049D3FC05080B0905124311BC044770B5B0460420002B00D008B2D232
:204CA000780D70254295D0041C641C491E5BD1F7BDB01C60BDB04770B08290019100980010
:204CC00049034308990100894A025088B00247700080000480044042B580B0824601A801AC
:204CE00080018801200F02024802F7FFFF73B002BD8046C00104400BB580B0824601A80129
:204D000080018801200102424802F7FFFF63B002BD8046C00138400B4A061880680206129F
:204D2000D50568020612D50268020612D4F66181477046C011080000B580B08290019100B3
:204D400098012111020918409900220303D2F7FFFF41B002BD80B580B0824601A801900086
:204D600080017840F7FFFD9C98007800F7FFFD98B002BD80B0829001910098002180430809
:204D8000990100894A015088B002477080044042B580B0824601A8017001780148022203AE
:204DA000F7FFFF18B002BD800100400BB580B0824601A8017001780148022230F7FFFF0ACF
:204DC000B002BD800104400BB082900191009B0099014A03588843185088B002477046C03C
:204DE00010280000B510220103121883780C609C784B508378894A015081BD10110C0000C6
:204E0000B580B08290019100A80178014802F7FFFF839801B002BD8080004010B08290010A
:204E20009100980099014A025088B002477046C012D00000B08190009900200102C24802B1
:204E40005088B001477046C000012600B0819000980000814A0220815088B001477046C0D8
:204E600080044042B0819000980000814A0220005088B001477046C080044042B0819000D9
:204E800099004A0248025088B0014770080400000003B100B08290019100980099014A0211
:204EA0005088B002477046C012900000B08290019100980099014A025088B002477046C0F0
:204EC00012900000B08290019100980099014A025088B002477046C012900000B0819000B4
:204EE00099004A035888230143185088B001477011040000B08190009900200102C248028F
:204F00005088B001477046C000012600B0819000980049035840211040080900B0014770FD
:204F200011100000B081900099004A0248025088B0014770080400000003B100B0814601E8
:204F400046687001780049026008B001477046C00308400BB08190009900200102C24802BA
:204F60005088B001477046C000012600B081900099004A0248025088B00147700804000088
:204F80000003B100B081900099004A035888230143185088B001477018040000B08190003A
:204FA0009900200102C248025088B001477046C000012600B081900099004A0248025088F4
:204FC000B0014770080400000003B100B580B0829001990148024348F7FFF9F4B002BD8070
:204FE00038800001B08290014668700178009901224501925088B0024770B081900099006F
:20500000201102025888230143185088B0014770B580B08290019901207D00C04348F7FF4C
:20502000FA11B002BD80220358802800D0051E401C4A2300700B4611E7F74770B08290016B
:20504000910098009901229501525088B0024770B0829001910098009901229501525088DA
:20506000B0024770490368082201021243906008477046C00108400B490368082201031294
:2050800043106008477046C00104400BB081900099004A0220015088B00147701108000028
:2050A000B580B0824601A80170017800F7FFFBF8B002BD80B510220103121883780C605C00
:2050C00078495081BD10B08190009800218101495840B2C0B0014770B51022010312188322
:2050E000780C609C78495081BD10B5102300429AD0035CCC54C41C5BE7F9BD10B580460B50
:20510000210358421DC14618F000F846BD8000004902680822014390600847700108400B06
:20512000490268082210431060084770013C400B490268082205431060084770E010E00064
:205140000089184049015840477046C018100000B580207D0200F7FFFD51F7FFFFE9BD8074
:20516000460B4611461AB580F000F80FBD8021005C421C492A00D1FB1E48477021005C42C8
:205180001C492A00D1FB1E4847702300429AD00254C11C5BE7FA4770B580F7FFFFA6BD8095
:2051A000B580F7FFFE2DBD80B580F7FFFAC3BD80E7FFE7FEE536477020014770BF00E7FE1E
:2051C00055000000010F011201408F012201C00202150F032401400400FF040002BF7F01CB
:2051E000037E4CB73300F0FF4349000050FD0000502700000002000000DC000051C00000CA
:105200000000202051F4000000F8202000000000E1
:00000001FF
